S3150800000080F801209D0100080D1900080312000858
S31508000010DB1700089D030008092D000800000000F2
S315080000200000000000000000000000006D2300082A
S315080000301909000800000000B91E00080D2700086D
S31508000040B7010008B7010008B7010008B7010008A2
S31508000050B7010008B7010008B7010008B701000892
S31508000060B10F0008C30F0008D50F0008B701000834
S31508000070B7010008B7010008B7010008B701000872
S31508000080B7010008B7010008B7010008B701000862
S31508000090B7010008B7010008B7010008E90F000812
S315080000A0B7010008B7010008B7010008B701000842
S315080000B0B7010008B7010008B7010008B701000832
S315080000C0B7010008B7010008B7010008B701000822
S315080000D0B70100080D290008B7010008B701000894
S315080000E0B7010008B7010008B7010008792700081A
S315080000F04D280008DD270008B7010008B7010008E9
S31508000100B7010008B7010008B7010008B7010008E1
S31508000110B7010008C1280008B7010008B7010008A0
S31508000120B7010008B7010008B7010008B7010008C1
S31508000130B7010008B7010008B7010008B7010008B1
S31508000140B7010008B7010008B7010008B7010008A1
S31508000150B7010008B7010008B7010008B701000891
S31508000160B7010008B7010008B7010008B701000881
S31508000170B7010008B70100089D040008B701000888
S31508000180B7010008B7010008DFF80CD000F09AF8AC
S31508000190004800474533000880F801200648804794
S315080001A006480047FEE7FEE7FEE7FEE7FEE7FEE74E
S315080001B0FEE7FEE7FEE7FEE71127000889010008CB
S315080001C040EA01039B0703D009E008C9121F08C0CB
S315080001D0042AFAD203E011F8013B00F8013B521E4B
S315080001E0F9D27047D2B201E000F8012B491EFBD2C2
S315080001F070470022F6E710B513460A460446194624
S31508000200FFF7F0FF204610BD30B505462A460B46D7
S3150800021012F8010B13F8014B08B1A042F8D01CB133
S31508000220002802D06D1CF1E7284630BDCAB2401E30
S3150800023010F8011F8A4202D00029F9D10020704720
S31508000240421C10F8011B0029FBD1801A704703468F
S3150800025011F8012B00F8012B002AF9D1184670472E
S315080002602DE9F05F0546002092469B4688460646DD
S31508000270814640241BE0284641464746224600F070
S3150800028042F853465A46C01A914110D311461846A9
S31508000290224600F029F82D1A67EB01084F46224638
S315080002A00120002100F020F817EB00094E41201E1E
S315080002B0A4F10104DFDC484631462A464346BDE838
S315080002C0F09F0000064C074D06E0E06840F0010389
S315080002D094E8070098471034AC42F6D3FFF758FF66
S315080002E0083E0008283E0008202A04DB203A00FAC7
S315080002F002F1002070479140C2F1200320FA03F36F
S31508000300194390407047202A04DB203A21FA02F06C
S315080003100021704721FA02F3D040C2F12002914031
S3150800032008431946704770B58C1810F8015B15F02C
S31508000330070301D110F8013B2A1106D110F8012B49
S3150800034003E010F8016B01F8016B5B1EF9D12B076E
S3150800035005D40023521E0DD401F8013BFAE710F824
S31508000360013BCB1A921C03E013F8015B01F8015B11
S31508000370521EF9D5A142D8D3002070BD10B5044647
S315080003801CB98021044800F035FF012C03D18021D7
S31508000390014800F02DFF10BD0018024000BFFEE71F
S315080003A030B10749096841F00101054A116005E0C5
S315080003B00349096821F00101014A116070470000EC
S315080003C000000550014948617047000000000550CB
S315080003D030B10749096841F48041054A116005E0D2
S315080003E00349096821F48041014A116070470000F9
S315080003F000000550F0B58FB004460D4616461F4658
S315080004000121880501F05AFD144800F09DF900BF46
S31508000410124800F045FA0028FAD14FF00070009013
S315080004200F480190029400200390049505900697C2
S315080004304FF48050079008960011099040020A90E0
S3150800044004200B9003200C9000200D900E90694616
S31508000450024800F033FA0FB0F0BD000028640240ED
S3150800046028000550002005490860C8601F2048611B
S3150800047000208861C861086248627047000005501C
S31508000480014600200022044B1B6903EA01020AB157
S31508000490012000E0002070470000055010B501203B
S315080004A0FFF7EEFF012809D102F018FF0120FFF738
S315080004B089FF03480078401C0149087010BD0000F8
S315080004C02400002029B1074AD2680243054BDA60A6
S315080004D006E0044AD268C3439BB21A40014BDA606D
S315080004E0704700000000055000210E4A126844F2C9
S315080004F001039A430B4B1A601A46116840F6F272CA
S315080005009143028843881A4383881A43C3881A4347
S3150800051003891A4343891A4383891A431143014AB3
S31508000520116070470000055010B50121034800F01E
S31508000530FFF80120FFF734FF10BD000028640240D1
S3150800054010B50020FFF72CFF00BF0548006800F033
S3150800055001000028F9D10021024800F0E9F810BD91
S3150800056000000550286402401CB500208DF80400E0
S315080005708DF806000820009001208DF8070002205B
S315080005808DF805006946024800F0BEFD1CBD000056
S31508000590000C02401CB50121082001F08FFC012047
S315080005A08DF8040000208DF8060008200090012030
S315080005B08DF8070002208DF805006946014800F00D
S315080005C0A3FD1CBD000C02402DE9F04100250026C4
S315080005D02AE0002404E0601CC4B2012000F0D8F927
S315080005E00821144800F0FBFD08B1642CF3DB002455
S315080005F004E0601CC4B2012000F0CAF908210D48C5
S3150800060000F0EDFD08B9642CF3DB282000F0C0F9F2
S315080006100821084800F0E3FD08B1012700E000279B
S315080006206806050E3D43761C082ED2DB2846BDE833
S31508000630F0810000000C02401CB500F03DF8FFF701
S3150800064093FF002404E0FFF7BFFF0DF80400641CC5
S31508000650052CF8DB9DF800009DF8011008449DF86C
S31508000660021008449DF8031008449DF804108842B7
S3150800067010D19DF801309DF8002008A1094802F024
S31508000680C1FB9DF803309DF8022004A1064802F03C
S31508000690B9FB02E005A002F0A5FB1CBD25642E25CA
S315080006A06400000015000020100000204552524F3B
S315080006B0522044415441000010B5FFF76BFF002259
S315080006C008211A4800F098FD142000F045F9012287
S315080006D00821164800F090FD1E2000F059F9FFF792
S315080006E043FF002404E0601CC4B2012000F050F966
S315080006F008210E4800F073FD08B1642CF3DB642C66
S3150800070000DB10BD002404E0601CC4B2012000F028
S315080007103FF90821054800F062FD08B9642CF3DBAF
S31508000720642C00DBEDE700BFEBE70000000C02409D
S3150800073021B1026842F00102026003E0026822F079
S315080007400102026070470000016821F001010160A2
S315080007500021016041608160C16001612121416120
S315080007604A49884204D13D21484A103A91608CE0B2
S3150800077046491831884205D14FF47461434A103A04
S31508000780916082E041493031884205D14FF47411B5
S315080007903E4A103A916078E03C494831884205D192
S315080007A04FF07461394A103A91606EE0374960310A
S315080007B0884204D13649354A103AD16065E0334952
S315080007C07831884204D13349304A103AD1605CE026
S315080007D02E499031884204D12F492C4A103AD160CB
S315080007E053E02A49A831884205D14FF03D51274A9E
S315080007F0103AD16049E02949884204D13D21274A67
S31508000800083A116041E025491831884205D14FF46C
S315080008107461224A083A116037E02049303188422B
S3150800082005D14FF474111D4A083A11602DE01B4991
S315080008304831884205D14FF07461184A083A116068
S3150800084023E016496031884204D11149134A121F20
S3150800085011601AE011497831884204D10D490F4ACE
S31508000860121F116011E00D499031884204D10A49DE
S315080008700A4A121F116008E00849A831884204D1C3
S315080008804FF03D51054A121F116070471060024033
S315080008903D000020400F002000003D20106402406B
S315080008A0014600200A6802F001020AB1012000E0B0
S315080008B0002070470146486880B2704710B500228C
S315080008C00268134B1A40CC680B6823434C692343D0
S315080008D08C692343CC6923430C6A23434C6A23431C
S315080008E08C6A23434C6B23438C6B23431A43026065
S315080008F0426922F00702D1E90B3423431A434261C5
S315080009000B6943604B6883608B68C36010BD000049
S315080009103F801CF0416070477047000010B50446E0
S315080009206FF0040001F0DEFEE11704EB5171C1F32C
S31508000930C701074A11701046007800EB4001C1EB69
S31508000940C0104FF6FF7101EAC0000249088010BDC9
S31508000950260000202800002070B504464FF40770D2
S3150800096094FBF0F0C6B24FF4077094FBF0F100FB6D
S31508000970114085B205E04FF4077000F02FF8701E9D
S31508000980C6B2002EF7D115B1284600F027F870BD7B
S315080009900146114A12784A434FF0E0235A61002271
S315080009A09A611A46126942F001021A6100BF4FF0B5
S315080009B0E022106900F001021AB100F48032002A20
S315080009C0F5D04FF0E022126922F001024FF0E02341
S315080009D01A6100229A617047260000200146114AD2
S315080009E012884A434FF0E0235A6100229A611A4658
S315080009F0126942F001021A6100BF4FF0E022106945
S31508000A0000F001021AB100F48032002AF5D04FF046
S31508000A10E022126922F001024FF0E0231A61002257
S31508000A209A6170472800002010B580210348FFF717
S31508000A30E0FB00200249088010BD0000EE030020FC
S31508000A404C00002070B50546002400BF00F096FA59
S31508000A5080B90DA10E48FFF7D7FB044654B13A21D9
S31508000A602046FFF7E3FB044614B1641C204670BD1C
S31508000A700020FCE70520FFF76FFF681E85B2002DF2
S31508000A80E4DC04A0F3E700004950442C0000000011
S31508000A90EE0300204E6F5F446174610010B544A0F8
S31508000AA002F0A0F903E04FF4FA70FFF755FF48A1EA
S31508000AB048A000F011FA0028F5D148A002F092F9F2
S31508000AC04CA002F08FF942A151A000F005FA4FF4AC
S31508000AD0FA70FFF741FF3EA150A000F0FDF953A0C0
S31508000AE002F080F959A002F07DF903E04FF4FA709C
S31508000AF0FFF732FF36A161A000F0EEF90028F5D124
S31508000B0062A002F06FF96EA002F06CF903E04FF4F0
S31508000B10FA70FFF721FF2EA174A000F0DDF9002876
S31508000B20F5D176A002F05EF97FA002F05BF98B4B57
S31508000B308B4A8CA1914802F065F903E04FF4FA70EC
S31508000B40FFF70AFF8EA18D4800F0C6F90028F5D1F7
S31508000B508DA002F047F99BA002F044F903E04FF498
S31508000B60FA70FFF7F9FE1AA1A6A000F0B5F9002859
S31508000B70F5D1A8A002F036F9B2A002F033F9BC4BC1
S31508000B80BC4ABDA1C34802F03DF903E04FF4FA7030
S31508000B90FFF7E2FEC0A1BF4800F09EF90028F5D194
S31508000BA0BFA002F01FF9CB4802F01CF910BD0000E7
S31508000BB0302E2057616974696E6720666F7220450A
S31508000BC0535038323636202E2E2E2E2E0D0A000081
S31508000BD04F4B000041540D0A00000000302E2045FE
S31508000BE053503832363620726573706F6E6465649A
S31508000BF0210D0A00312E20526573657474696E677B
S31508000C0020455350383236362E2E2E2E0D0A000029
S31508000C1041542B5253540D0A0000000041542B43F3
S31508000C204950434C4F53450D0A000000312E2045CC
S31508000C3053503832363620726573657420636F6D8B
S31508000C40706C65746564210D0A000000322E20530D
S31508000C50657474696E672057692D4669206D6F64DF
S31508000C606520746F2053746174696F6E204D6F64CC
S31508000C70652E2E2E2E2E0D0A0000000041542B4301
S31508000C80574D4F44453D310D0A000000322E20577E
S31508000C90692D4669206D6F64652073657420746FCD
S31508000CA02053746174696F6E204D6F646520737587
S31508000CB0636365737366756C6C79210D0A000000B1
S31508000CC0332E20436F6E6669677572696E672045B5
S31508000CD053503832363620444843502066756E6382
S31508000CE074696F6E2E2E2E2E2E0D0A0041542B433C
S31508000CF057444843503D312C310D0A00332E2045C8
S31508000D00535038323636204448435020636F6E6657
S31508000D10696775726174696F6E20636F6D706C6553
S31508000D20746564210D0A0000342E20436F6E6E65CB
S31508000D306374696E6720746F2074686520737065C4
S31508000D406369666965642057692D4669206E65740E
S31508000D50776F726B2E2E2E2E0D0A000030000020A3
S31508000D602A00002041542B43574A41503D222573FF
S31508000D70222C222573220D0A0000000026030020DB
S31508000D80474F542049500000342E2053756363653D
S31508000D90737366756C6C7920636F6E6E65637465C4
S31508000DA06420746F2074686520737065636966696A
S31508000DB065642057692D4669206E6574776F726B76
S31508000DC0210D0A00352E2053657474696E67205408
S31508000DD043502F55445020636F6E6E656374696F78
S31508000DE06E20746F2073696E676C652D636F6E6E07
S31508000DF0656374696F6E206D6F64652E2E2E2E0DD9
S31508000E000A00000041542B4349504D55583D300DBA
S31508000E100A000000352E205443502F5544502073A5
S31508000E20696E676C652D636F6E6E656374696F6E48
S31508000E30206D6F646520636F6E6669677572656499
S31508000E40210D0A00362E2045737461626C69736839
S31508000E50696E67205443502F55445020636F6E6E59
S31508000E60656374696F6E2E2E2E2E2E0D0A000000F5
S31508000E70470000203900002041542B434950535461
S31508000E804152543D22544350222C222573222C25AC
S31508000E90730D0A008A030020434F4E4E4543540003
S31508000EA0362E205443502F55445020636F6E6E657E
S31508000EB06374696F6E2065737461626C69736865C3
S31508000EC064207375636365737366756C6C79210D3D
S31508000ED00A000000483D00082DE9F04104460D4689
S31508000EE0C8262046FFF7ACF907463A4621460D487C
S31508000EF001F033FE0FE000F041F848B929460A48E8
S31508000F00FFF782F920B1FFF78FFD0020BDE8F081D9
S31508000F100A20FFF721FD301EA6F10101CEB2EAD163
S31508000F200120F3E700500040EE03002030B589B0F9
S31508000F3004460D46FFF778FD2A460AA101A801F0E6
S31508000F4061FF0CA101A8FFF7C7FF48B1FFF76CFDC9
S31508000F502A462146084801F000FE012009B030BDA6
S31508000F600020FBE741542B43495053454E443D2549
S31508000F70640D0A003E000000005000400A48008840
S31508000F8008B9012070470848008808490988884236
S31508000F9003D1002004490880F4E703480088034980
S31508000FA008800120EEE700004C0000204E000020DB
S31508000FB010B5042000F062F810B1042000F058F8CB
S31508000FC010BD10B5082000F059F810B1082000F03F
S31508000FD04FF810BD10B5102000F050F810B11020D1
S31508000FE000F046F810BD000010B50A20FFF7B4FC63
S31508000FF04FF400711D4800F0F2F838B90020FFF7E9
S31508001000BDF94FF4007000F033F803E04FF40070B8
S3150800101000F02EF84FF48071144800F0E0F838B963
S315080010200120FFF7ABF94FF4807000F021F803E0D8
S315080010304FF4807000F01CF880210C4800F0CFF8BF
S3150800104018B9802000F014F802E0802000F010F8AB
S315080010504021064800F0C3F818B9402000F008F807
S3150800106002E0402000F004F810BD00000014024021
S315080010700149086070470000143C01400146002001
S31508001080034A12680A400AB1012000E000207047AE
S31508001090143C014010B51B48007898B100240EE0B6
S315080010A00021204600F02EFA3220FFF755FC0121D8
S315080010B0204600F027FA3220FFF74EFC641C032C6A
S315080010C0EEDB1DE00021012000F01CFA00210220C1
S315080010D000F018FA0021032000F014FA3220FFF776
S315080010E03BFC0121084600F00DFA0121022000F020
S315080010F009FA0121032000F005FA3220FFF72CFC3B
S3150800110010BD00000C030020F0B50A46002100239C
S31508001110002400BF3DE0012505FA01F3156805EA3C
S3150800112003049C4234D105684F000326BE40B543EC
S31508001130056015794E00B540066835430560157992
S31508001140012D02D01579022D16D185684F00032688
S31508001150BE40B543856055794E00B540866835432F
S315080011608560456801268E40B54345604568967991
S315080011708E40B6B235434560C5684F000326BE406B
S31508001180B543C560D5794E00B540C6683543C560D8
S31508001190491C1029BFD3F0BDF0B5002300244D0724
S315080011A0ED0E02FA05F3CE1000F1200555F826508B
S315080011B04E07F70E0F26BE40B543CF1000F12006A6
S315080011C046F82750CE1000F1200555F8265045EA76
S315080011D00304CE1000F1200545F82640F0BD02466E
S315080011E0002013690B400BB1012000E00020704776
S315080011F041837047018370470AB1018300E0418348
S31508001200704700BFFEE700002DE9F04FA3B00020AD
S3150800121022904C48007801287BD1FFF791F94A4C77
S3150800122000270020229000251DE0605DFF2809D1D7
S31508001230681C205CD82805D144A001F0D3FDA94636
S3150800124001202290605DFF280CD1681C205CD928FB
S3150800125008D1229830B140A001F0C4FDA5EB0900E1
S31508001260871C05E06D1C3F480068B5EB800FDCD392
S3150800127000BF39463CA001F0B5FD002F5CD04C44B8
S315080012804FF00008627821783AA001F0ABFD781E8D
S31508001290225CB81E215C3DA001F0A4FD49E0A7EB45
S315080012A0080ABAF5AF6F02DD4FF4AF6000E05046AA
S315080012B00646002E08DD08EB0600401E205CFF28C7
S315080012C002D1B24500DD761E324636A11AA801F0D3
S315080012D099FD00BF1AA8FEF7B3FF00EB060B04EB57
S315080012E008005946FFF722FE0028F3D01DE06421C6
S315080012F001A8FEF77EFF0020FFF7A4FB83465946A8
S3150800130001A8FEF7A4FF2BA101A8FEF77DFF08B1EF
S315080013100CE014E01AA8FEF793FF00EB060B04EBAB
S3150800132008005946FFF702FE00BFE0E700BFB044D9
S3150800133000BFB845B3D300BF02200249087023B0E6
S31508001340BDE8F08F6800002070040020484541443D
S315080013502052494748540A005441494C20524947AB
S3150800136048540A00640000206A70676C656E3A206B
S3150800137025640A004A504547206865616465723AE3
S31508001380202530325820253032580A004A50454721
S3150800139020666F6F7465723A2025303258202530E2
S315080013A032580A0041542B43495053454E443D2573
S315080013B0640D0A004F5645520000000010B503247C
S315080013C000F05AFC00F00CFA4FF480631A014FF44F
S315080013D0F8410A48FFF70EF8094A02EB84025188D9
S315080013E0074A32F8240000F06DFCFFF79DF8C82084
S315080013F0FFF7B2FAFFF708FF10BD000070040020DF
S31508001400D83600087CB5344903C9CDE90001002463
S315080014105EE0204600F0ACFF1420FFF79DFA002599
S3150800142053E03DF815102D48FFF7D9FE00284BD19B
S3150800143004EB44002844401C294908600846016812
S3150800144028A001F0CFFC264800680A2818D12A48A7
S315080014500078002838DD28480078401E264908709C
S3150800146000202649244A1278885400212448224A12
S315080014701278815420480178214801F01DFC23E0A8
S31508001480174800680C281FD0154800680B2802D199
S3150800149000201349086018480078062814DA10480E
S315080014A000781649144A127888542A201449124A90
S315080014B01278885410480078401C0F49087008466E
S315080014C001780F4801F0F8FB6D1C032DA9DB641C9D
S315080014D0042C9EDB7CBD0000C833000800180240BF
S315080014E0500000204B6579426F6172645F4E756DDE
S315080014F03A25640A0000000060000020540000201D
S315080015005A00002070B505460C4655B924B1082185
S315080015101148FFF76FFE1EE008210F48FFF768FE27
S3150800152019E0012D0AD124B110210B48FFF762FEFC
S3150800153011E010210848FFF75BFE0CE0022D0AD1E6
S3150800154024B129020548FFF755FE04E04FF400715F
S315080015500248FFF74DFE70BD001002400018024019
S315080015601CB50121502000F0A9FC1820009001208C
S315080015708DF8040000208DF806008DF8070002207B
S315080015808DF8050069460B48FFF7BEFD4FF400705D
S31508001590009069460848FFF7B7FD18210548FFF788
S315080015A029FE4FF400710448FFF724FE03A001F05A
S315080015B019FC1CBD00100240001802404C4544208E
S315080015C0496E697469616C697A65642E0A0000005F
S315080015D02DE9FC410446002700210D2000F0F2F811
S315080015E0932020702020607001A8234602222146FD
S315080015F000900C2000F051F806465EB9002503E07D
S31508001600605D4740681CC5B2042DF9DB605DB842D1
S3150800161000D002263046BDE8FC8170B505460C466A
S31508001620284600F007F820EA04063146284600F066
S31508001630C9F870BD70B504467E2000EA440040F043
S315080016408004204600F04AFE0546284670BD7CB553
S3150800165006460C4607210D2000F0B4F8267001A8AE
S3150800166023460122214600900C2000F016F8054674
S315080016701DB9BDF80400102800D0022528467CBDF7
S3150800168070B505460C462846FFF7D4FF40EA04061F
S315080016903146284600F096F870BD2DE9FE4F0646FD
S315080016A0884691469A46DDF830B00220029000201E
S315080016B0019000900C2E06D00E2E09D11220019012
S315080016C01020009005E0772001903020009000E07F
S315080016D000BF00BF019840F08001022000F072F8B8
S315080016E080210420FFF799FF80210A20FFF7C8FF11
S315080016F00021012000F066F8002506E018F805101C
S31508001700092000F05FF8681C85B24D45F6DB3146C6
S31508001710012000F057F80C2E03D180210D20FFF789
S31508001720AFFF4FF4FA6500BF0420FFF783FF0446B6
S31508001730681E85B235B104F0010018B9009820403A
S315080017400028F1D080210D20FFF767FF002D36D045
S315080017500620FFF76FFF00F01B0070BB0020029009
S315080017600198204000F0010008B1012002900C2EDB
S3150800177025D10A20FFF75EFF04460C20FFF75AFF23
S3150800178000F007072FB1601E07EBC000ABF800009A
S3150800179002E0E000ABF8000004B90124102C00DDDB
S315080017A01024002506E00920FFF744FF0AF8050083
S315080017B0681C85B2A542F6DB01E002200290029879
S315080017C0BDE8FE8F70B504460D467E2000EA440447
S315080017D02946204600F0A0FD70BD00BFFEE70000C8
S315080017E00EB50121172000F069FB0121084600F01B
S315080017F075FB5020019002208DF8080000208DF816
S315080018000A0003208DF8090001208DF80B0001A9B4
S315080018103948FFF779FCC020019001A93748FFF73E
S3150800182073FC4FF43C60019001A93548FFF76CFC46
S315080018306020019001A93348FFF766FC0D220421B8
S315080018402D48FFF7A9FC0D2206212B48FFF7A4FC1B
S315080018500D2207212948FFF79FFC0D22062128485B
S31508001860FFF79AFC0D2207212548FFF795FC0D2264
S3150800187008212348FFF790FC0D2209212048FFF78D
S315080018808BFC0D220B211E48FFF786FC0D22062134
S315080018901A48FFF781FC0D2205211A48FFF77CFC40
S315080018A00D2206211748FFF777FCFEF7DBFD00201F
S315080018B01549088048818881088120208880002071
S315080018C04880C8800846FEF70FFE01210846FEF745
S315080018D0F9FD0120FEF77CFD4E208DF80000002062
S315080018E08DF801008DF8020001208DF80300684686
S315080018F000F00EF80EBD0000000002400004024091
S31508001900000802400010024018030020704700003B
S3150800191070B5002100230F22C4781CB3174C246825
S3150800192004F4E064C4F5E064C4F30721C1F10404D7
S31508001930E3B20A4144789C40E1B2847814402143DA
S315080019400C07210E0E4C05786155047804F01F0526
S315080019500124AC4005786D11AD0005F1E025C5F808
S31508001960004109E0047804F01F050124AC40054D48
S315080019700678761145F8264070BD00000CED00E0AB
S3150800198000E400E080E100E002490143024A1160F8
S31508001990704700000000FA050CED00E070B5064639
S315080019A0002415E004F1B001C8B200F039FA0020AD
S315080019B000F036FA102000F033FA002504E030462D
S315080019C000F054FA681CC5B2802DF8DB601CC4B25E
S315080019D0082CE7DB70BD70B504460D4605F1B0016D
S315080019E0C8B200F01DFA102141EA141000F018FAE6
S315080019F004F00F0000F014FA70BD00002DE9F04164
S31508001A0006460F4690460024454628E039463046A5
S31508001A10FFF7E1FF002408E02978203904EB0111DB
S31508001A20114A505C00F022FA641C082CF4DB781C7E
S31508001A30C1B23046FFF7CFFF00240AE029782039E3
S31508001A40082202EB01112144074A505C00F00EFA05
S31508001A50641C082CF2DB6D1C06F10800C6B2287857
S31508001A600028D3D1BDE8F081243700082DE9F047D6
S31508001A7006460F46904699460024A24645462DE05E
S31508001A800AF1010A39463046FFF7A5FF002408E0A7
S31508001A902978203904EB0111134A505C00F0E6F965
S31508001AA0641C082CF4DB781CC1B23046FFF793FFA0
S31508001AB000240AE029782039082202EB0111214482
S31508001AC0094A505C00F0D2F9641C082CF2DB6D1C44
S31508001AD006F10800C6B2CA4500D102E028780028F7
S31508001AE0CED100BFBDE8F087243700082DE9F041C4
S31508001AF007460E461546002431463846FFF76BFF63
S31508001B0000BF04E0285D00F0B1F9601CC4B2102CD7
S31508001B10F8DB701CC1B23846FFF75DFF002406E00B
S31508001B2004F11001685C00F0A1F9601CC4B2102C25
S31508001B30F6DBBDE8F08100007CB5002501214820D0
S31508001B4000F0BCF94FF40040009001208DF8040025
S31508001B5000208DF8060002208DF8050001208DF87A
S31508001B60070069463248FFF7CFFA08200090694611
S31508001B703048FFF7C9FA00202F4908600A20FEF707
S31508001B80EBFE00202D49C1F8BC020A20FEF7E4FE50
S31508001B9001202B49086000F045FA0121FF2000F0DA
S31508001BA073FB8021122000F06FFB3220FEF7D4FE73
S31508001BB01C2000F0B9FA04464FF6FF7000EA042428
S31508001BC01D2000F0B1FA044347F6A270844205D0FE
S31508001BD021461CA001F006F901207CBD0A2000F070
S31508001BE0A3FA04464FF6FF7000EA04240B2000F01F
S31508001BF09BFA044342F24260844205D0214614A06F
S31508001C0001F0F0F80220E8E700250AE0134A02EBA3
S31508001C1045025178114A12F8150000F035FB681C88
S31508001C2085B2B22DF2D30EA001F0DCF80020D4E77D
S31508001C3000180240000C02408C82414200004342D8
S31508001C40BC0243424D49443A25640D0A000000008F
S31508001C504849443A25640D0A00000000D8330008B4
S31508001C604F563236343020496E697469616C697A28
S31508001C7065642E0A0000000010B5002400BF0AE0C3
S31508001C800E4A02EB440251780C4A12F8140000F08E
S31508001C90FBFA601C84B2082CF2D300240AE0084A36
S31508001CA002EB44025178064A12F8140000F0ECFAE6
S31508001CB0601C84B2072CF2D310BD0000C836000899
S31508001CC09E3600082DE9F04104460D46E11704EB5F
S31508001CD091718910A4EB810111B10120BDE8F08151
S31508001CE0E91705EB91718910A5EB810109B102206D
S31508001CF0F4E72046E11704EB9171C1F38F072846F4
S31508001D00E91705EB9171C1F38F060021FF2000F05A
S31508001D10BBFA0421E02000F0B7FAF9B25A2000F025
S31508001D20B3FAF1B25B2000F0AFFAC7F3012804203A
S31508001D3000EAA61040EA080841465C2000F0A4FA2A
S31508001D400021E02000F0A0FA0020C7E710B5AE2079
S31508001D5000F066F8002000F063F8102000F060F844
S31508001D60402000F05DF8812000F05AF8CF2000F0FE
S31508001D7057F8A12000F054F8C82000F051F8A62022
S31508001D8000F04EF8A82000F04BF83F2000F048F885
S31508001D90D32000F045F8002000F042F8D52000F0E6
S31508001DA03FF8802000F03CF8D92000F039F8F120FF
S31508001DB000F036F8DA2000F033F8122000F030F898
S31508001DC0DB2000F02DF8402000F02AF8202000F053
S31508001DD027F8022000F024F88D2000F021F81420BE
S31508001DE000F01EF8A42000F01BF8A62000F018F852
S31508001DF0AF2000F015F8AF2000F012F80020FFF72A
S31508001E00CDFD02A000F0EEFF10BD00004F4C45448A
S31508001E1020496E697469616C697A65642E0A0000E6
S31508001E2010B5044600F026FC782000F0F1FB00F01F
S31508001E30CDFB18B100F038FC012010BD002000F0E1
S31508001E40E7FB00F0C3FB18B100F02EFC0220F4E714
S31508001E50204600F0DDFB00F0B9FB18B100F024FCC9
S31508001E600320EAE700F020FC0020E6E710B5044668
S31508001E7000F000FC782000F0CBFB00F0A7FB18B1BF
S31508001E8000F012FC012010BD402000F0C1FB00F05C
S31508001E909DFB18B100F008FC0220F4E7204600F08C
S31508001EA0B7FB00F093FB18B100F0FEFB0320EAE74E
S31508001EB000F0FAFB0020E6E77047000029B1064A61
S31508001EC012680243044B1A6004E0034A126882430C
S31508001ED0014B1A60704700003038024029B1064AA3
S31508001EE012680243044B1A6004E0034A12688243EC
S31508001EF0014B1A60704700003438024029B1064A7F
S31508001F0012680243044B1A6004E0034A12688243CB
S31508001F10014B1A60704700004038024029B1064A52
S31508001F2012680243044B1A6004E0034A12688243AB
S31508001F30014B1A607047000044380240F0B5002192
S31508001F4000220024022500260223324F3F6807F0AC
S31508001F500C0121B1042905D0082937D105E02E4FF7
S31508001F60076036E02D4F076033E02A4F3F1F3F6872
S31508001F70C7F38056274F3F1F3F6807F03F036EB1F0
S31508001F80264FB7FBF3F7DFF88CC0ACF1040CDCF88E
S31508001F9000C0CCF3881C07FB0CF40CE01E4FB7FB03
S31508001FA0F3F7DFF870C0ACF1040CDCF800C0CCF332
S31508001FB0881C07FB0CF4174F3F1F3F68C7F3014700
S31508001FC07F1C7D00B4FBF5F7076002E0124F07603F
S31508001FD000BF00BF0F4F3F6807F0F0010909104F17
S31508001FE07A5C0768D74047600A4F3F6807F4E051B4
S31508001FF0890A0B4F7A5C4768D7408760054F3F6868
S3150800200007F46041490B064F7A5C4768D740C760BA
S31508002010F0BD0000083802400024F40000127A00DF
S31508002020000000201CB501210820FFF747FFC0204B
S31508002030009001208DF8040000208DF8060002208B
S315080020408DF8050001208DF8070069460948FFF755
S315080020505BF8C0210748FFF7CDF80648006820F46A
S315080020604040044908600846006840F4804008601B
S315080020701CBD0000000C024010B53220FEF788FC9B
S3150800208001200B4908600B49C1F898023220FEF777
S315080020907FFC00200649091F08603220FEF778FCFD
S315080020A000200449C1F89C023220FEF771FC10BDDD
S315080020B09C8241420080414270B50024174800685E
S315080020C020F440401549086008460068086008255D
S315080020D015E03220FEF75CFC012011490860600615
S315080020E0040E1048D0F81C0208B1601CC4B2322095
S315080020F0FEF74EFC00200A490860681EC5B2002D8E
S31508002100E7DC0648006820F44040044908600846B1
S31508002110006840F480400860204670BD000C02400C
S31508002120988241420080414270B50446002500F07D
S3150800213023F8602000F054F86420FEF729FC2046B6
S3150800214000F04EF86420FEF723FC00F02FF8642018
S31508002150FEF71EFC00F010F8612000F041F864203C
S31508002160FEF716FCFFF7A8FF0546FFF785FF00F008
S315080021701DF8284670BD000010B501200949086001
S315080021800949C1F898023220FEF702FC00200549E9
S3150800219008603220FEF7FCFB00200349C1F89802CC
S315080021A010BD00009C8241420080414210B50020CB
S315080021B0094908603220FEF7EBFB01200749C1F800
S315080021C098023220FEF7E4FB01200349086032201A
S315080021D0FEF7DEFB10BD00009C82414200804142B2
S315080021E070B5044600261BE004F0800018B10120F3
S315080021F02249086002E00020204908606006040EB3
S315080022003220FEF7C5FB01201C49091F0860322051
S31508002210FEF7BEFB00201A49C1F89802701CC6B228
S31508002220082EE1DB1748006820F44040154908608D
S315080022300846006808603220FEF7AAFB01200F490D
S31508002240091F08603220FEF7A3FB0D48D0F81C02D0
S3150800225008B1012500E0002500200849091F08608B
S315080022600848006820F440400649086008460068A7
S3150800227040F480400860284670BD00009C824142B8
S3150800228000804142000C024070B505460C46002607
S31508002290FFF772FF6020FFF7A3FF00B10126642055
S315080022A0FEF776FB2846FFF79BFF00B10126642060
S315080022B0FEF76EFB2046FFF793FF00B10126FFF7F6
S315080022C075FF304670BD1CB5044601949DF80400A0
S315080022D001F05CF800909DF800001CBD70B504463E
S315080022E04FF400410B48FEF783FF0120FEF734FB4D
S315080022F02046FFF7E8FF0020FFF7E5FF05464FF405
S3150800230000410448FEF776FF0120FEF725FB284624
S3150800231070BD00000000024070B505460C464FF43B
S3150800232000410A48FEF764FF0120FEF715FB284620
S31508002330FFF7C9FF2046FFF7C6FF4FF400410348E1
S31508002340FEF758FF0120FEF707FB70BD00000240AC
S315080023500246002013890B400BB1012000E0002043
S315080023607047014688897047818170477047000029
S315080023701CB50446074903C9CDE900014CF203011F
S315080023800548FEF737FF3DF814100348FEF730FFFF
S315080023901CBD0000D0330008000C02400CB500201C
S315080023A0019000903448006840F480303249086053
S315080023B000BF3148006800F4003000900198401CC6
S315080023C00190009818B90198B0F5A04FF1D12A48A4
S315080023D0006800F4003010B10120009001E00020F0
S315080023E000900098012846D123484030006840F004
S315080023F080502149403108602048006840F4404038
S315080024001E4908601C48083000681B4908310860E6
S315080024100846006840F4004008600846006840F432
S31508002420A05008601648091F0860081F006840F099
S315080024308070091F086000BF0F48006800F0007030
S315080024400028F9D040F205700E4908600A4808309D
S31508002450006820F00300084908310860084600684B
S3150800246040F00200086000BF03480830006800F02A
S315080024700C000828F8D10CBD003802400070004056
S3150800248008544007003C024010B52B4A0021102092
S31508002490FFF72CFB294A00212020FFF727FB284AB3
S315080024A000213020FFF722FB264A00214020FFF7B3
S315080024B01DFB254A00215020FFF718FB234A00215F
S315080024C06020FFF713FB224A02210020FFF70EFBCC
S315080024D0204A02211020FFF709FB1F4A022120206B
S315080024E0FFF704FB1D4A02215020FFF7FFFA1C4A9A
S315080024F004210020FFF7FAFA164A04211020FFF7F4
S31508002500F5FA154A04212020FFF7F0FA15A204214E
S315080025105020FFF773FA144A06210020FFF7E6FA5F
S31508002520124A06211020FFF7E1FA0B4A062120205D
S31508002530FFF7DCFA10BD00000C0100202C0100207A
S315080025404C0100206C0100208C010020AC01002009
S31508002550AC000020CC000020CC010020EC010020BB
S31508002560EC000020524800000C0200202C0200203B
S315080025701CB501212020FFF7A1FC032000900120B3
S315080025808DF8040000208DF806008DF807008DF8F8
S31508002590050069460748FEF7B7FD01210548FEF71D
S315080025A029FE02210348FEF725FE03A000F01AFCC7
S315080025B01CBD00000014024049494320496E697455
S315080025C069616C697A65642E0A00000010B50024FA
S315080025D001210E48FEF70EFE0220FEF7D9F9022168
S315080025E00A48FEF707FE0220FEF7D2F9012107483E
S315080025F0FEF7F5FD00B1012402210448FEF7F8FDB7
S315080026000120FEF7C5F9204610BD0000001402405F
S3150800261070B50546002421E002211548FEF7E8FDBD
S315080026200120FEF7B5F9C4F1070045FA00F000F0FD
S31508002630010020B101210E48FEF7DCFD03E001216F
S315080026400B48FEF7D5FD0120FEF7A2F9022108483E
S31508002650FEF7D0FD0220FEF79BF9641C082CDBDB95
S3150800266002210348FEF7C4FD0120FEF791F970BD6B
S315080026700014024010B502210A48FEF7BBFD0121ED
S315080026800848FEF7B7FD0220FEF782F90121054842
S31508002690FEF7AEFD0220FEF77BF902210148FEF7A0
S315080026A0A7FD10BD0014024010B502210C48FEF724
S315080026B09FFD01210A48FEF79BFD0220FEF768F9F7
S315080026C002210748FEF796FD0220FEF761F901216F
S315080026D00348FEF78FFD0220FEF75AF910BD0000E9
S315080026E000140240042808D14FF0E021096941F09E
S315080026F004014FF0E022116107E04FF0E02109697B
S3150800270021F004014FF0E022116170477047000084
S3150800271010B51548006840F470001349086013485E
S31508002720006840F001001149086000200F4908318F
S3150800273008600E4800680E4908400C4908600D48B4
S31508002740091D0860081F006820F48020091F08601A
S31508002750002006490C310860FFF720FE4FF00060A4
S3150800276001498039086010BD88ED00E00038024054
S31508002770FFFFF6FE1030002410B58EB03422114942
S3150800278001A8FDF71DFD01210F4800F086F8012874
S3150800279011D1FDF751FF0D4B0D4A0EA101A800F00E
S315080027A031FB01A8FDF74CFD0446214601A8FEF7BA
S315080027B0BDFB00F071FA0121034800F06BF80EB07A
S315080027C010BD0000143D0008001800401500002048
S315080027D01000002025732C257300000000B587B073
S315080027E00121134800F059F801281BD11149262068
S315080027F0FEF72DFFA0B90F48FEF7EAFE80B90D488F
S31508002800C0780C498978CDE900100A4843780278DF
S3150800281009A102A800F0F6FA02A800F01FFA00BF04
S31508002820FEF7F0FD0121024800F034F807B000BDBC
S315080028300020004070F401202530325825303258E7
S3150800284025303258253032580000000010B50121D5
S315080028500D4800F022F8012811D1FEF71BFC0B48A1
S3150800286000680A380949086008460068002801DC3B
S315080028706420086005480168054800F01FF8012132
S31508002880014800F007F810BD001C004010030020A6
S3150800289000200040CA430282704730B50246002035
S315080028A000230024158A05EA0103958905EA01042F
S315080028B013B10CB1012000E0002030BD4163704720
S315080028C010B540F225510E4800F085F8012811D1BF
S315080028D00C480088802802D300200A490880084846
S315080028E08088C1B2074802880088401C054B1880BA
S315080028F0054881542021024800F045F810BD000023
S31508002900005000404C000020EE03002010B540F2B5
S315080029102551174800F05FF8012822D1144800F025
S3150800292013F9C4B2612C07D100210846FEF7EAFD67
S3150800293031210F4800F00DF9412C07D10121002063
S31508002940FEF7E0FD30210A4800F003F9622C02D1B7
S315080029500020FDF713FD422C02D10120FDF70EFDE4
S3150800296000BF40F22551024800F00DF810BD0000E6
S315080029700010014001F40072B2F5007F00D100BFDB
S31508002980CA430280704710B50022002340F66A1435
S31508002990A14200D100BF0A1201249440A3B2DC432D
S315080029A0048010BD21B1828942F40052828104E07C
S315080029B082894DF6FF731A408281704702460020CD
S315080029C0B1F5007F00D100BF13880B400BB1012081
S315080029D000E00020704770B5024600240023002559
S315080029E0002040F66A16B14200D100BFC1F3421575
S315080029F001F01F03012606FA03F3012D02D1968979
S31508002A00334006E0022D02D1168A334001E0968A49
S31508002A1033400C12012606FA04F41688344013B122
S31508002A200CB1012000E0002070BDF0B5034600247B
S31508002A3000260025002040F66A17B94200D100BFDB
S31508002A401846C1F3421401F01F06012707FA06F5D6
S31508002A50012C01D10C3004E0022C01D1103000E029
S31508002A6014301AB107682F43076002E00768AF43BE
S31508002A700760F0BD2DE9FF4705460E460024A1462E
S31508002A8000BFA046B08900B100BF2C8A24F4405488
S31508002A90F08804432C82AC8941F20C608443B088E8
S31508002AA031890843718908430443AC81AC8A24F40C
S31508002AB04074B0890443AC826846FFF73FFA204861
S31508002AC0854202D01F48854202D1DDF80C9001E00C
S31508002AD0DDF80890A88900F4004040B109EBC90068
S31508002AE000EB091031684900B0FBF1F707E009EB84
S31508002AF0C90000EB091031688900B0FBF1F76420C2
S31508002B00B7FBF0F004012009642101FB1078A889BD
S31508002B1000F4004040B1322000EBC800B0FBF1F0F1
S31508002B2000F00700044308E0322000EB0810642197
S31508002B30B0FBF1F000F00F0004432C81BDE8FF87DD
S31508002B40001001400014014001468888C0F30800BF
S31508002B507047C1F30802828070472DE9F0410746A5
S31508002B600D46164600240BE000BF80213846FFF7C5
S31508002B7025FF0028F9D0295D3846FFF7EAFF641CCF
S31508002B80B442F1DBBDE8F08110B588B004460121F6
S31508002B900C20FFF793F902208DF81C00C00206905E
S31508002BA002208DF81D0000208DF81E0006A9234876
S31508002BB0FEF7AAFA0420069006A92148FEF7A4FA09
S31508002BC008220C211D48FEF7E7FA082202211C48B4
S31508002BD0FEF7E2FA01210805FFF790F902940020B2
S31508002BE0ADF814000C20ADF812000020ADF8100066
S31508002BF0ADF80E00ADF80C0002A91248FFF73AFF2F
S31508002C00012240F225510F48FFF70FFF35208DF8B6
S31508002C10040001208DF8070002208DF80500002029
S31508002C208DF8060001A8FEF773FE01210548FFF797
S31508002C30B9FE05A000F0D6F808B010BD000802409D
S31508002C40000C024000500040554152543520496E50
S31508002C50697469616C697A65642E0A0010B5044660
S31508002C600A4A06210020FEF741FF094A06211020DC
S31508002C70FEF73CFF074A06212020FEF737FF2246CB
S31508002C8006213020FEF7BAFE10BD00004C020020D7
S31508002C906C020020CC01002010B5054A0221302024
S31508002CA0FEF7ACFE034A04213020FEF7A7FE10BD4E
S31508002CB0100000201500002070B504460D460026B9
S31508002CC003E00020FFF7D2F8761C802EF9DB0B4ACA
S31508002CD006210020FEF70AFF094A06211020FEF702
S31508002CE005FF084A06212020FEF700FF2B4622464C
S31508002CF006213020FEF7BAFE70BD0000CC02002087
S31508002D00EC020020CC01002000BFFEE710B588B019
S31508002D10044601210846FFF7D1F802208DF81C0069
S31508002D2000208DF81E004FF4C060069001208DF833
S31508002D301F0002208DF81D0006A92248FEF7E4F9B7
S31508002D40072209211F48FEF727FA07220A211D48EC
S31508002D50FEF722FA01211020FFF7E0F8029400207E
S31508002D60ADF814000C20ADF812000020ADF81000E4
S31508002D70ADF80E00ADF80C0002A91348FFF77AFE6D
S31508002D8040211148FFF7F6FD012240F225510E4871
S31508002D90FFF74BFE25208DF8040001208DF807006B
S31508002DA000208DF805008DF8060001A8FEF7B0FD95
S31508002DB001210548FFF7F6FD04A000F013F808B056
S31508002DC010BD0000000002400010014055736172FA
S31508002DD0743120496E697469616C697A65642E0A72
S31508002DE0000000000FB4054B10B503A9044A029869
S31508002DF000F02CF810BC5DF814FB0000B93200088E
S31508002E00140300200FB4084B10B504A902AA0398AE
S31508002E1000F01CF8044602A9002000F048FA2046F3
S31508002E2010BC5DF814FB0000AF32000802E008C8C9
S31508002E30121F08C1002AFAD170477047002001E026
S31508002E4001C1121F002AFBD1704700002DE9FF4F70
S31508002E508DB00F460546002606E025280BD0DDE98D
S31508002E600F1290476D1C761C28780028F5D111B0F2
S31508002E703046BDE8F08F0024A246A1460122EC495F
S31508002E8000E0044315F8013F203B02FA03F008422C
S31508002E90F7D128782A2810D06FF02F022878A0F1C9
S31508002EA03001092914D80AEB8A0102EB410144F0E2
S31508002EB0020400EB010A6D1CF0E701CF5FEA000A85
S31508002EC003D544F40054CAF1000A44F002046D1C08
S31508002ED028782E2817D115F8010F44F004042A285B
S31508002EE00ED06FF02F022878A0F1300109290AD8F0
S31508002EF009EB890102EB410100EB01096D1CF2E7C0
S31508002F0057F8049B6D1C28786C280FD006DC4C28D3
S31508002F1017D068280DD06A2814D104E0742810D078
S31508002F207A280FD10DE044F400140AE044F4801422
S31508002F3001E044F440146978814202D104F5801412
S31508002F406D1C6D1C2A786E2A1FD00CDC632A31D0C2
S31508002F5004DC002A8BD0582A11D1A3E0642A68D051
S31508002F60692A0CD165E0732A2ED004DC6F2A73D047
S31508002F70702A04D19BE0752A6FD0782A6ED0104645
S31508002F80DDE90F129047761C50E1C4F3025002287F
S31508002F9006D0032809D0042801CF09D0066045E1E8
S31508002FA001CFF117C0E9006140E101CF06803DE19C
S31508002FB006703BE117F8040B8DF8000000208DF829
S31508002FC00100EB46012003E057F804BB4FF0FF3041
S31508002FD061074FF0000102D40DE008F101018846AF
S31508002FE049450FDA8045F8DB1BF808100029F4D1AB
S31508002FF008E008F1010188468142FADB1BF808104F
S315080030000029F6D1DDE90F23AAEB080081462146FF
S3150800301000F036F9304400EB080604E0DDE90F124B
S315080030201BF8010B9047B8F10108F7D2214648462C
S31508003030F7E00A21C4F302534FF0000B0891022B64
S3150800304004D001CFC117032B09D00AE0FF1D27F0D2
S315080030500707F7E8020108E032E01FE020E000B2C7
S31508003060C117042B01D140B2C117031E71F1000329
S3150800307007DA4FF0000CD0EB0C006CEB01012D23A6
S3150800308002E0230504D52B238DF82430012303E021
S31508003090E30701D02023F7E7984658E00A2110E015
S315080030A010210EE010204FF0000B08900CE01021C4
S315080030B04FF0000B44F004044FF00809089103E0B0
S315080030C008214FF0000B0891C4F30253022B04D0D9
S315080030D001CF0021032B06D006E0FF1D27F00707C6
S315080030E0F7E8020103E080B2042B00D1C0B24FF02A
S315080030F0000823072BD5702A07D0DDF820C08CF0EE
S31508003100100C5CEA0B0C05D00EE040238DF8243039
S31508003110012308E050EA010306D030238DF8243055
S315080031208DF8252002239846DDF820C08CF0080C7F
S315080031305CEA0B0C0BD150EA010301D1630706D5F3
S3150800314030238DF824304FF00108A9F10109582AD7
S3150800315004D038A20B9208AA0A920BE03AA2F9E721
S315080031605B46089AFDF77CF80B9B9B5C0A9A521EF5
S315080031700A92137050EA0102F2D10A98ADEB0000E8
S3150800318000F1200B600702D524F4803401E04FF0EB
S315080031900109D94502DDA9EB0B0000E0002000EB90
S315080031A00B0141440890AAEB010AE00306D4DDE9C5
S315080031B00F232146504600F063F806444FF00009F5
S315080031C008E009A911F80900DDE90F12904709F18D
S315080031D00109761CC145F4DBE0030CD5DDE90F23B4
S315080031E02146504600F04CF8064404E0DDE90F128B
S315080031F030209047761C0899481E08900029F5DC6F
S3150800320008E00A980A990078491C0A91DDE90F1224
S315080032109047761CBBF10001ABF1010BF1DC2146AE
S315080032205046DDE90F2300F019F806446D1C1BE62D
S31508003230092801003031323334353637383961627E
S315080032406364656600000000303132333435363742
S315080032503839414243444546000000002DE9F04113
S31508003260044600251E461746880404D405E0394658
S315080032702020B0476D1C641EF9D52846BDE8F081AC
S315080032802DE9F041044600251E469046C80301D59F
S31508003290302700E02027880404D505E04146384653
S315080032A0B0476D1C641EF9D52846BDE8F0810A684A
S315080032B0531C0B601070704770B504460D46E1B29A
S315080032C00548FFF746FC00BF80210348FFF776FB59
S315080032D00028F9D0002070BD0010014010B516482E
S315080032E0007898B900211548FDF722FA00BF13485F
S315080032F0FDF7D6FA0028FAD11048FDF7DBFAC0F533
S31508003300F8400F49086001200B4908700A48007800
S3150800331002280FD14FF4F8400849091D08600146F4
S315080033200648FDF7F7FA01210448FDF701FA0020DF
S315080033300149087010BD000068000020286402409A
S31508003340640000204FF4A060FEF71EFB4FF4E13046
S31508003350FFF7DCFC4FF4E130FFF716FCA820FDF779
S31508003360DDFAFEF7FDF8FDF799FBFFF701F9FEF721
S31508003370EDFCFFF789F800BFFEF7DEFB0028FBD15E
S31508003380FEF71CF801E0FDF785FEFCE770B504467C
S31508003390264600BF02210B48FEF7DAFF0028F9D0BF
S315080033A031460848FEF7E0FF00BF01210548FEF751
S315080033B0CFFF0028F9D00348FEF7D3FFC5B2284649
S315080033C070BD000000300140040008001000000035
S315080033D00100020000400080FF002CFF2EDFFF01E5
S315080033E03C321100090204D813E514482C0C337832
S315080033F03A333BFB3E0043111610399235DA221A4E
S3150800340037C3230034C0361A068807C00D870E4115
S315080034104C0048005B0042034A8121992440253824
S3150800342026825C00630046000C3C617062807C0565
S31508003430208028306C006D806E007002719473C114
S315080034403D345A5712001711187519011A97323652
S31508003450030F37404FCA50A85A236D006D38FF0036
S31508003460E57FF9C04124E01476FF33A042204318D3
S315080034704C0087D5883FD703D910D382C808C9809E
S315080034807C007D007C037D487D487C087D207D107E
S315080034907D0E9000910E911A9131915A916991750C
S315080034A0917E9188918F919691A391AF91C491D76E
S315080034B091E891209200930693E393059305930070
S315080034C09304930093009300930093009300930052
S315080034D09600970897199702970C9724973097287C
S315080034E0972697029798978097009700C3EFA400AE
S315080034F0A800C511C651BF80C710B666B8A5B7647F
S31508003500B97CB3AFB497B5FFB0C5B194B20FC45C7C
S31508003510C0C8C1968C00863D50005190522C53006D
S31508003520540055885A905B2C5C05D302C3ED7F0086
S31508003530DA09E51FE167E000DD7F0500FF002CFFE3
S315080035402EDFFF013C321100090204D813E51448A6
S315080035502C0C33783A333BFB3E0043111610399254
S3150800356035DA221A37C3230034C0361A068807C04C
S315080035700D870E414C0048005B0042034A812199A1
S315080035802440253826825C00630046220C3C617084
S3150800359062807C05208028306C006D806E00700289
S315080035A0719473C13D345A571240171118431900C4
S315080035B01A4B320937C04FCA50A85A236D003D38F6
S315080035C0FF00E57FF9C04124E01476FF33A04220CE
S315080035D043184C0087D5883FD703D910D382C8082B
S315080035E0C9807C007D007C037D487D487C087D2061
S315080035F07D107D0E9000910E911A9131915A916924
S315080036009175917E9188918F919691A391AF91C46E
S3150800361091D791E891209200930693E39305930539
S3150800362093009304930093009300930093009300F0
S3150800363093009600970897199702970C9724973046
S315080036409728972697029798978097009700C3ED33
S31508003650A400A800C511C651BF80C710B666B8A594
S31508003660B764B97CB3AFB497B5FFB0C5B194B20F20
S31508003670C45CC064C14B8C00863D500051C852964C
S315080036805300540055005AC85B965C00D302C3ED3C
S315080036907F00DA09E51FE167E000DD7F0500FF012D
S315080036A0E014E177E51FD703DA10E000FF00DA0936
S315080036B0D703DF0233A03C00E167FF01E000E10029
S315080036C0E500D700DA00E000FF00DA10D703DF00D4
S315080036D033803C40E1770000B0009000A0007800FD
S315080036E0600120014001F0008002E0012003580239
S315080036F000040003000500044006B004FF0124206E
S3150800370025182660FF012434251C2600FF01243EC7
S3150800371025382681FF01244825402681FF012458A3
S31508003720255026920000000000000000000000005E
S3150800373000000000000000F8000000000000003350
S315080037403000000000100C06100C060000000000F7
S315080037500000000040C07840C0784000043F0404E0
S315080037603F040400007088FC08300000001820FFA1
S31508003770211E0000F008F000E018000000211C03DC
S315080037801E211E0000F00888700000001E21232458
S315080037901927211010160E00000000000000000076
S315080037A000000000000000E0180402000000000706
S315080037B01820400000020418E0000000004020180D
S315080037C007000000404080F0804040000202010FE0
S315080037D001020200000000F0000000000101011FC4
S315080037E001010100000000000000000080B0700028
S315080037F000000000000000000000000000010101B8
S315080038000101010100000000000000000030300046
S315080038100000000000000000806018040060180620
S315080038200100000000E010080810E000000F10205A
S3150800383020100F00001010F8000000000020203FA4
S31508003840202000000070080808887000003028242E
S3150800385022213000003008888848300000182020CF
S3150800386020110E000000C02010F8000000070424F4
S31508003870243F240000F80888880808000019212039
S3150800388020110E0000E0108888180000000F112093
S3150800389020110E0000380808C83808000000003F4C
S315080038A0000000000070880808887000001C2221AB
S315080038B021221C0000E010080810E0000000312258
S315080038C022110F00000000C0C000000000000030F8
S315080038D0300000000000008000000000000080604A
S315080038E000000000000080402010080000010204CB
S315080038F008102000404040404040400004040404B2
S31508003900040404000008102040800000002010086D
S3150800391004020100007048080808F00000000030A2
S3150800392036010000C030C828E810E0000718272430
S3150800393023140B000000C038E0000000203C2302DE
S315080039400227382008F8888888700000203F202041
S3150800395020110E00C0300808080838000718202073
S315080039602010080008F808080810E000203F20206A
S3150800397020100F0008F88888E8081000203F20204B
S315080039802320180008F88888E8081000203F20003F
S3150800399003000000C0300808083800000718202077
S315080039A0221E020008F808000008F808203F210136
S315080039B001213F20000808F8080800000020203FE1
S315080039C02020000000000808F8080800C080808051
S315080039D07F00000008F888C028180800203F20014A
S315080039E02638200008F8080000000000203F2020A4
S315080039F02020300008F8F800F8F80800203F003FBB
S31508003A00003F200008F830C00008F808203F2000D2
S31508003A1007183F00E01008080810E0000F102020E3
S31508003A2020100F0008F808080808F000203F2101B8
S31508003A3001010000E01008080810E0000F1824240F
S31508003A4038504F0008F8888888887000203F200082
S31508003A50030C302000708808080838000038202138
S31508003A6021221C00180808F8080818000000203F42
S31508003A702000000008F808000008F808001F2020A9
S31508003A8020201F000878880000C83808000007387A
S31508003A900E010000F80800F80008F800033C0700CB
S31508003AA0073C0300081868808068180820302C0333
S31508003AB0032C30200838C800C83808000000203F0A
S31508003AC02000000010080808C838080020382621F9
S31508003AD020201800000000FE020202000000007FFD
S31508003AE040404000000C30C000000000000000010B
S31508003AF00638C00000020202FE00000000404040F6
S31508003B007F0000000000040202020400000000001A
S31508003B100000000000000000000000008080808097
S31508003B20808080800002020400000000000000007F
S31508003B300000000000008080808000000019242218
S31508003B4022223F2008F8008080000000003F112054
S31508003B5020110E000000008080800000000E112059
S31508003B6020201100000000808088F800000E112037
S31508003B7020103F200000808080800000001F222245
S31508003B8022221300008080F0888888180020203FB1
S31508003B90202000000000808080808000006B9494C4
S31508003BA09493600008F8008080800000203F210080
S31508003BB000203F2000809898000000000020203F49
S31508003BC020200000000000809898000000C0808037
S31508003BD0807F000008F8000080808000203F2402D3
S31508003BE02D302000000808F8000000000020203FC3
S31508003BF0202000008080808080808000203F200078
S31508003C003F20003F8080008080800000203F210008
S31508003C1000203F200000808080800000001F2020B8
S31508003C2020201F00808000808000000080FFA120E7
S31508003C3020110E000000008080808000000E1120F8
S31508003C4020A0FF80808080008080800020203F2187
S31508003C50200001000000808080808000003324243A
S31508003C6024241900008080E0808000000000001FE6
S31508003C70202000008080000000808000001F202097
S31508003C8020103F20808080000080808000010E3058
S31508003C900806010080800080008080800F300C03B9
S31508003CA00C300F0000808000808080000020312EBC
S31508003CB00E312000808080000080808080818E7098
S31508003CC01806010000808080808080000021302C4A
S31508003CD02221300000000000807C02020000000063
S31508003CE0003F404000000000FF0000000000000008
S31508003CF0FF0000000002027C800000000040403FF8
S31508003D000000000000060101020204040000000091
S31508003D1000000000313233000000000000000000FF
S31508003D200000000000000000000000000000000085
S31508003D300000000000000000000000000000000075
S31508003D400000000000000000372E2045535038328E
S31508003D50363620696E697469616C697A6174696F4F
S31508003D606E20636F6D706C6574656421205365728F
S31508003D7076657220636F6E6E656374696F6E207305
S31508003D8075636365737366756C7E0D0A00000000C3
S31508003D905151564741000000515647410000000066
S31508003DA053564741000000005647410053584741C3
S31508003DB000000000555847410000000058474100E0
S31508003DC05143494600000000434946004226570031
S31508003DD0416E7469717565004E65676174697665CB
S31508003DE000000000526564697368000047726565E3
S31508003DF06E69736800000000426C7569736800009C
S31508003E004E6F726D616C0000283E000800000020AD
S31508003E101803000026030008704000081803002055
S31508003E2068F501003C2E0008412D0102030404C573
S31508003E3006070809321B92461654696E616F100907
S31508003E403132333435363738100E3139322E313671
S31508003E50382E3133372E311A3801511AFF0101191C
S31508003E60123E1408D83D1B08CC041AE4041AEC04C4
S31508003E701AF8041AD0041AC0041A90041AC8041AA4
S31508003E8098041AA8041AA0041ABC041AAC041AB492
S31508003E9004251060028C2BFE920132FE180A0404D7
S31508003EA07E01407E42427E0234427E402809FC243E
S31508003EB02424FC252624081204101040308F808400
S31508003EC04C55252525554C8080803940493F7940F9
S31508003ED0100C4448507F40407F5048444010091019
S31508003EE09453321E325210194F4B427ECF4A490123
S31508003EF039D4180B222AAAFFAAAAA280A2AA0813B2
S31508003F002A2220108060080A6A8A8A9AAA8A8ACA95
S31508003F100F20C024F801064A020129613936511CCE
S31508003F2040807F05174424147F1424390619702805
S31508003F3010088849290949897909090929498808F0
S31508003F4062400B322AA6A2622111098101200E4283
S31508003F5022130B42827E02020A122346162030AC36
S31508003F606330100A88C8A8998E88A8C888200A22AB
S31508003F70672212128040300F05133F404071C33646
S31508003F80363808060909E6F80C049F53041E2E075E
S31508003F901F302040012320102A08011DF8898E8829
S31508003FA001190A212E8040201807BD43403F2C10D6
S31508003FB010900118081010FF101011163110082063
S31508003FC060203F10101037030C102040F81009FE2F
S31508003FD0121212F212121E2AF0FD100B100E013FD9
S31508003FE00101FF11211F150F40807F39693C40FFF1
S31508003FF0440173404022FF1C0204084E7174C03FFE
S31508004000C0197F34100C0339601A805F142222FE0F
S31508004010100A4020504C434C50204016807F0282A4
S31508004020FF100A404458414E605847401010108C03
S315080040304404E40495A64424148444940C280D02EC
S31508004040027A414143427E424242439E170484E437
S315080040505C44C4100902F2828282FE80803F02011B
S315080040607F10103FF71B4888E33201726400000096
S7050800018968
