:020000040800F2
:1000000058FA0120A101000831190008CF11000899
:10001000FD170008DD030008192F0008000000008C
:10002000000000000000000000000000FF240008A5
:10003000D908000800000000411F000885280008BA
:10004000BB010008BB010008BB010008BB010008A0
:10005000BB010008BB010008BB010008BB01000890
:10006000F90E0008110F0008290F0008BB01000855
:10007000BB010008BB010008BB010008BB01000870
:10008000BB010008BB010008BB010008BB01000860
:10009000BB010008BB010008BB010008410F0008BC
:1000A000BB010008BB010008BB010008BB01000840
:1000B000BB010008BB010008BB010008BB01000830
:1000C000BB010008BB010008BB010008BB01000820
:1000D000BB0100088D2B0008BB010008BB01000814
:1000E000BB010008BB010008BB010008E5280008AF
:1000F000C52900080D290008BB010008BB01000844
:10010000BB010008BB010008BB010008BB010008DF
:10011000BB010008492B0008BB010008BB01000817
:10012000BB010008BB010008BB010008BB010008BF
:10013000BB010008BB010008BB010008BB010008AF
:10014000BB010008BB010008BB010008BB0100089F
:10015000BB010008BB010008BB010008BB0100088F
:10016000BB010008BB010008BB010008BB0100087F
:10017000BB010008BB010008D5040008BB01000852
:10018000BB010008BB010008DFF810D000F08AF8BE
:100190000048004779360008AFF3008058FA012084
:1001A0000648804706480047FEE7FEE7FEE7FEE711
:1001B000FEE7FEE7FEE7FEE7FEE7FEE78928000828
:1001C00089010008D2B201E000F8012B491EFBD2E0
:1001D00070470022F6E710B513460A460446194652
:1001E000FFF7F0FF204610BD30B505462A460B4606
:1001F00012F8010B13F8014B08B1A042F8D01CB162
:10020000002802D06D1CF1E7284630BDCAB2401E5E
:1002100010F8011F8A4202D00029F9D1002070474E
:10022000421C10F8011B0029FBD1801A70470346BD
:1002300011F8012B00F8012B002AF9D1184670475C
:100240002DE9F05F0546002092469B46884606460B
:10025000814640241BE0284641464746224600F09E
:1002600042F853465A46C01A914110D311461846D7
:10027000224600F029F82D1A67EB01084F46224666
:100280000120002100F020F817EB00094E41201E4C
:10029000A4F10104DFDC484631462A464346BDE866
:1002A000F09F0000064C074D06E0E06840F00103B7
:1002B00094E8070098471034AC42F6D3FFF768FF84
:1002C0000840000828400008202A04DB203A00FAF1
:1002D00002F1002070479140C2F1200320FA03F39D
:1002E000194390407047202A04DB203A21FA02F09B
:1002F0000021704721FA02F3D040C2F12002914060
:1003000008431946704770B58C1810F8015B15F05A
:10031000070301D110F8013B2A1106D110F8012B77
:1003200003E010F8016B01F8016B5B1EF9D12B079C
:1003300005D40023521E0DD401F8013BFAE710F852
:10034000013BCB1A921C03E013F8015B01F8015B3F
:10035000521EF9D5A142D8D3002070BD70B5044615
:10036000074D002C03D18021284600F028FF012CE6
:1003700005D12846BDE87040802100F01EBF70BD49
:10038000001802401CB50121402001F09BFE012015
:100390008DF8040000208DF80600802100918DF872
:1003A000070002208DF80500064C6946204600F043
:1003B000AFFE8021204600F000FF03A002F016FEF1
:1003C0001CBD0000001802404245455020496E699E
:1003D0007469616C697A65642E0A0000FEE70000AA
:1003E0000649002804D0086840F001000860704702
:1003F000086820F001000860704700000000055008
:100400000149486170470000000005500649002876
:1004100004D0086840F4804008607047086820F401
:100420008040086070470000000005502DE9F04151
:1004300090B005460C4616461F460121880501F07E
:1004400041FEDFF85480404600F07AF9404600F063
:100450000DFA0028FAD14FF0007001900F48029079
:100460000395002004900594069007974FF480515F
:100470000891099609110A9149020B9104210C91E6
:1004800003210D910E900F9001A9404600F0F8F95C
:1004900010B0BDE8F081000028640240280005503B
:1004A000054800210160C1601F2242618161C16174
:1004B00001624162704700000000055002460020C2
:1004C000034909691140002900D00120704700004C
:1004D0000000055010B50120FFF7F0FF012808D1FA
:1004E00003F09CF80120FFF78BFF02480178491CBC
:1004F000017010BDAF020020064A002903D0D16868
:100500000143D1607047D168C04380B20140D160DF
:10051000704700000000055030B50D490A6844F2EC
:1005200001039A430A600A6840F6F2739A4303880B
:100530004488C588234384882C4323430489234368
:10054000448980892343034313430B6030BD00007B
:100550000000055010B50121034800F0E5F8BDE8A2
:1005600010400120FFF73CBF286402401CB500206A
:100570008DF804008DF806000820009001208DF809
:10058000070002208DF805006946024800F0C0FD12
:100590001CBD0000000C02401CB50121082001F028
:1005A00091FD01208DF8040000218DF8061008212E
:1005B00000918DF8070002208DF805006946024879
:1005C00000F0A6FD1CBD0000000C02402DE9F0412A
:1005D00000260025184F002404E0641CE4B201202A
:1005E00000F0ACF90821384600F0E0FD08B1642CB9
:1005F000F3D3002404E0641CE4B2012000F09EF96F
:100600000821384600F0D2FD08B9642CF3D3282025
:1006100000F094F90821384600F0C8FD08B1012126
:1006200000E000217006060E0E436D1C082DD2DB83
:100630003046BDE8F0810000000C02407CB500F0BF
:100640003BF8FFF793FF00246D46FFF7BFFF2855E7
:10065000641C052CF9DB9DF800209DF801309DF805
:1006600002109DF80340D018214408449DF804105E
:1006700088420FD10AA10C4802F0E2FC9DF8033039
:100680009DF8022002B00848BDE8704004A1401F58
:1006900002F0D6BCBDE87C4004A002F0A7BC00007C
:1006A00025642E2564000000210000204552524F91
:1006B000522044415441000070B5FFF76DFF194DC1
:1006C00000220821284600F07CFD142000F01CF9CF
:1006D00001220821284600F074FD1E2000F02EF9AA
:1006E000FFF744FF002404E0641CE4B2012000F0A2
:1006F00025F90821284600F059FD08B1642CF3D3F0
:10070000642C0ED2002404E0641CE4B2012000F04A
:1007100015F90821284600F049FD002801D1642C74
:10072000F2D370BD000C0240002904D0016841F0F2
:10073000010101607047016821F00101016070470B
:100740002DE9F043016821F0010101600021016001
:1007500041608160C1600161212141613E493E4AA1
:1007600010394FF03D08904203D1C1F80880BDE830
:10077000F083394A4FF474651832904201D18D608C
:10078000F5E7354A4FF474163032904201D18E604D
:10079000EDE7314A4FF074674832904201D18F60E3
:1007A000E5E72D4B2D4A6033984201D1CA60DEE760
:1007B000294C2B4B7834A04201D1CB60D7E7DFF82E
:1007C00098C0284C0CF1900C604501D1CC60CEE76C
:1007D000DFF884904FF03D5C09F1A809484502D14B
:1007E000C1F80CC0C3E72049DFF87C9008394845C0
:1007F00002D1C1F80080BAE7DFF86C8008F1180870
:10080000404501D10D60B2E7174D3035A84201D106
:100810000E60ACE7144D4835A84201D10F60A6E741
:10082000114D11496035091FA84201D10A609EE7A8
:100830000D4A7832904201D10B6098E70A4A903213
:10084000904201D10C6092E7074AA83290428ED1C3
:10085000C1F800C08BE70000106002403D0000209E
:10086000400F002000003D2010640240014600209F
:100870000968C90700D001207047406880B27047FE
:1008800030B50368124A1340CC680A682243D1E9A4
:1008900005452C432243CC6922430C6A22434C6A0F
:1008A00022438C6A22434C6B22438C6B22431A43B3
:1008B0000260426922F00703D1E90B2422431A4364
:1008C00042610A6942604A6882608968C16030BDDD
:1008D0003F801CF0416070477047000010B504462F
:1008E0006FF0040001F0C0FF0649E008087000EB5B
:1008F0004002C2EBC0104FF6FF7202EAC00048800F
:1009000010BD00001000002070B54FF40775B0FB5B
:10091000F5F1CCB2B0FBF5F105FB110604E0284679
:1009200000F026F8641EE4B2002CF8D1002E04D0AA
:100930003046BDE8704000F01BB870BD0B49097827
:1009400048434FF0E021486100238B61086940F083
:10095000010008610869C20701D0C003FAD508691F
:1009600020F0010008618B6170470000100000203A
:100970000B49498848434FF0E021486100238B61CF
:10098000086940F0010008610869C20701D0C0038E
:10099000FAD5086920F0010008618B6170470000FA
:1009A0001000002010B580210348FFF712FC034916
:1009B0000020088010BD0000A003002026000020B9
:1009C00010B5044600F086FA60B90BA10C48FFF799
:1009D0000BFC38B13A21FFF719FC08B1401C10BDDF
:1009E000002010BD0520FFF78FFF641EA4B2002C6D
:1009F000E8D104A010BD00004950442C00000000C4
:100A0000A00300204E6F5F446174610070B506461C
:100A10000D46C8243046FFF703FC024631460C4819
:100A200002F0A8F90EE000F055FA40B9294609484D
:100A3000FFF7DAFB18B1FFF7B5FF002070BD0A2001
:100A4000FFF762FF641EE4B2EDD2012070BD00002A
:100A500000500040A003002030B589B004460D4688
:100A6000FFF7A0FF2A460AA101A802F0E9FA0CA1AB
:100A700001A8FFF7CBFF48B1FFF794FF2A462146B4
:100A8000084802F077F9012009B030BD0020FBE7EB
:100A900041542B43495053454E443D25640D0A00B3
:100AA0003E0000000050004010B544A002F09EFA45
:100AB0004FF4FA7402E02046FFF726FF47A148A052
:100AC000FFF7A4FF0028F6D147A002F08FFA4CA050
:100AD00002F08CFA41A151A0FFF798FF2046FFF7E2
:100AE00013FF3EA150A0FFF791FF53A002F07EFA42
:100AF00059A002F07BFA02E02046FFF705FF37A17C
:100B000061A0FFF783FF0028F6D163A002F06EFA20
:100B10006EA002F06BFA02E02046FFF7F5FE2FA16F
:100B200075A0FFF773FF0028F6D177A002F05EFAF8
:100B300080A002F05BFA8C4B8CA19A1F914802F0C6
:100B40007FFA02E02046FFF7DFFE8FA18D48FFF716
:100B50005DFF0028F6D18EA002F048FA9BA002F0BB
:100B600045FA02E02046FFF7CFFE1CA1A7A0FFF741
:100B70004DFF0028F6D1A9A002F038FAB3A002F088
:100B800035FA794B7F480B3B03F11402BAA164306C
:100B900002F056FA02E02046FFF7B6FE7948BDA102
:100BA0006430FFF733FF0028F5D1BCA002F01EFA35
:100BB000BDE81040C64802F019BA0000302E205798
:100BC000616974696E6720666F72204553503832D0
:100BD0003636202E2E2E2E2E0D0A00004F4B0000F2
:100BE00041540D0A00000000302E20455350383289
:100BF000363620726573706F6E646564210D0A006D
:100C0000312E20526573657474696E6720455350A8
:100C1000383236362E2E2E2E0D0A000041542B521D
:100C200053540D0A0000000041542B434950434CDB
:100C30004F53450D0A000000312E204553503832E5
:100C4000363620726573657420636F6D706C6574E1
:100C50006564210D0A000000322E2053657474690A
:100C60006E672057692D4669206D6F646520746F2B
:100C70002053746174696F6E204D6F64652E2E2E43
:100C80002E2E0D0A0000000041542B43574D4F44B7
:100C9000453D310D0A000000322E2057692D46696E
:100CA000206D6F64652073657420746F20537461C8
:100CB00074696F6E204D6F6465207375636365732F
:100CC0007366756C6C79210D0A000000332E204389
:100CD0006F6E6669677572696E672045535038326A
:100CE000363620444843502066756E6374696F6ED3
:100CF0002E2E2E2E2E0D0A0041542B4357444843CE
:100D0000503D312C310D0A00332E204553503832DE
:100D10003636204448435020636F6E6669677572AB
:100D20006174696F6E20636F6D706C6574656421AA
:100D30000D0A0000342E20436F6E6E656374696E79
:100D40006720746F207468652073706563696669D5
:100D500065642057692D4669206E6574776F726BE4
:100D60002E2E2E2E0D0A00003500002041542B435C
:100D7000574A41503D222573222C222573220D0A09
:100D800000000000D8020020474F542049500000C6
:100D9000342E205375636365737366756C6C7920AC
:100DA000636F6E6E656374656420746F207468652C
:100DB000207370656369666965642057692D4669AB
:100DC000206E6574776F726B210D0A00352E2053EB
:100DD000657474696E67205443502F5544502063E6
:100DE0006F6E6E656374696F6E20746F2073696EC9
:100DF000676C652D636F6E6E656374696F6E206DD1
:100E00006F64652E2E2E2E0D0A00000041542B43D8
:100E100049504D55583D300D0A000000352E2054E4
:100E200043502F5544502073696E676C652D636F76
:100E30006E6E656374696F6E206D6F646520636F9D
:100E40006E66696775726564210D0A00362E20454D
:100E5000737461626C697368696E67205443502FC4
:100E600055445020636F6E6E656374696F6E2E2EED
:100E70002E2E2E0D0A00000041542B43495053548E
:100E80004152543D22544350222C222573222C25BA
:100E9000730D0A00434F4E4E45435400362E2054E6
:100EA00043502F55445020636F6E6E656374696FB5
:100EB0006E2065737461626C697368656420737514
:100EC000636365737366756C6C79210D0A000000AD
:100ED000C03F000807490888002805D04A8890428A
:100EE00004D100200880704701207047488001200D
:100EF000704700002600002010B5042000F06AF8BA
:100F0000002804D0BDE81040042000F05DB810BDFA
:100F100010B5082000F05EF8002804D0BDE81040AD
:100F2000082000F051B810BD10B5102000F052F8A4
:100F3000002804D0BDE81040102000F045B810BDD6
:100F400070B50A20FFF7E0FC1E4C4FF400752946EF
:100F5000204600F02BF9F0B1284600F035F84FF4A8
:100F600080752946204600F021F9D8B1284600F0C6
:100F70002BF88021204600F019F9D0B1802000F034
:100F800023F84021204600F011F9B0B1BDE87040CF
:100F9000402000F019B80020FFF7E0F9284600F0E3
:100FA00013F8DCE70120FFF7D9F9284600F00CF828
:100FB000DFE7802000F008F8E3E7BDE8704040205C
:100FC00000F002B8001402400149086070470000B8
:100FD000143C014001460020024A12680A4200D037
:100FE00001207047143C014030B51B4A83790168E9
:100FF000002B2AD013688B431360111D0B68046803
:10100000A3430B60017911440B68046823430B6010
:10101000114C08342168036899432160231D196825
:101020000568A94319604179102905D011440A685F
:10103000006802430A6030BD2168026811432160E4
:10104000196800680143196030BD007910440268D6
:101050008A43026030BD0000003C014010B51B48CF
:101060000078002812D000240021204600F074FAF5
:101070003220FFF749FC0121204600F06DFA3220B2
:10108000FFF742FC641C032CEEDB10BD00210120A5
:1010900000F062FA0021022000F05EFA0021032035
:1010A00000F05AFA3220FFF72FFC0121084600F029
:1010B00053FA0121022000F04FFA0121032000F031
:1010C0004BFABDE810403220FFF71EBC4C00002058
:1010D00010B5064C00220121204601F0B0FC20464C
:1010E000BDE81040012101F08FBC0000002000404D
:1010F00010B5064C0121204601F086FC2046012255
:10110000BDE81040114601F09ABC000000200040EC
:101110002DE9F041002201274FF0030C07FA02F5F8
:101120000B682B40AB422CD1066853000CFA03F439
:10113000A64306600E79D0F800809E4046EA080675
:1011400006600E79012E01D0022E12D18668A643C8
:1011500086604E79D0F808809E4046EA0806866090
:101160004668AE43466045688E799640B6B23543D0
:101170004560C568A543C560CC799C40C3681C43E5
:10118000C460521C102AC9D3BDE8F08110B54B07CA
:10119000DB0E9A40C90800EB8100016A0F249C40D5
:1011A000A1430162016A1143016210BD02460020A1
:1011B00012690A4200D001207047418370470183C1
:1011C0007047002A01D00183704741837047FEE7D2
:1011D0002DE9F047A2B00020DFF8188198F8001040
:1011E000012979D1444D002700241EE0295DFF2903
:1011F00008D129194978D82904D140A001F0F6FE78
:1012000026460120295DFF290ED129194978D929BF
:101210000AD148B13CA001F0E9FEA71BBF1C042184
:101220003CA0FFF719FC05E0641CD8F80410B4EBEF
:10123000810FDBD3394639A001F0D8FE042135A057
:10124000FFF70AFC002F44D005EB060900254FF4F8
:10125000806A3CE034A001F0C9FE781B5446A042ED
:1012600000DC0446002C08DD2919494411F8011C52
:10127000FF2902D1A04200DD641E22462CA11AA83B
:1012800001F0DEFE09EB05061AA8FEF7C9FF0119F9
:101290003046FFF7E1FB0028F6D00520FFF734FBCE
:1012A00027A001F0A3FE642101A8FEF792FF002011
:1012B000FFF786FB014601A8FEF7B9FF22A101A8AE
:1012C000FEF792FF58B122A001F090FE2544BD42E6
:1012D000C0D3022088F8000022B0BDE8F0871EA02D
:1012E00001F084FE1AA8FEF79BFF01193046FFF7B4
:1012F000B3FBD5E7B002002040040020484541443C
:101300002052494748540A005441494C2052494709
:1013100048540A0046414345000000006A70676C6B
:10132000656E3A2025640A002D312D312D310000E3
:1013300041542B43495053454E443D25640D0A000A
:1013400030303030300000004F5645520000000071
:1013500031313131000000003131313131000000D4
:1013600010B500F0EDFC00F04BFA4FF480631A0169
:101370004FF4F8410748FFF759F80748C1898089B9
:1013800000F0FEFCFFF7E6F8BDE81040C820FFF7CC
:10139000BBBA000040040020623F000870B586B070
:1013A0000121202000F08EFE00248DF814408DF8DD
:1013B00016404FF47076049601258DF817500220E0
:1013C0008DF8150004A91948FFF7A2FE0121880332
:1013D00000F0A2FE0621052001F092F80721052069
:1013E00001F08EF80821052001F08AF80921052076
:1013F00001F086F802968DF80E508DF80C400C2006
:101400008DF80D0002A8FFF7EFFD17208DF80400FE
:101410008DF805408DF806508DF8075001A800F0B2
:1014200089FA03A001F0E2FD06B070BD001402408D
:101430004B455920496E697469616C697A65642EFF
:101440000A0000002DE9FC5F394803C8CDE900011E
:101450000025DFF8E0B0384FE94600260BF1080818
:10146000284601F063F81420FFF74EFA00243348B1
:1014700039F81410FFF79AFE002851D105EB45000A
:101480000119491CCBF804102DA001F0AFFDDBF8C9
:1014900004000A2804D00C2812D00B282BD02CE0F2
:1014A0009BF8000030B3401EC1B28BF8001047F823
:1014B000216008F801601F48083001F007FD2FE0A7
:1014C00006211D4802F01CF88246514621A001F079
:1014D0008DFD5046FEF7A4FE01465046FFF7BCFACC
:1014E0000020FEF73BFF4FF4FA70FFF70DFA0120E2
:1014F000FEF734FF14E0CBF804609BF800000628E8
:101500000ED2DBF8041047F820102A2108F800104A
:10151000401CC1B28BF800100648083001F0D6FC20
:10152000641C032CA3DB6D1C042D99DBBDE8FC9F20
:10153000B03F0008BC02002040F401200018024027
:101540004B6579426F6172645F4E756D3A25640A2E
:101550000000000025730A00114A002809D0012864
:1015600010D002281AD102020E48A1B11146FFF78D
:1015700026BE19B108211046FFF721BE08211046EA
:10158000FFF71BBE19B110211046FFF718BE10213E
:101590001046FFF712BE1146FFF70FBE704700005E
:1015A000001002400018024010B5142000F06AF844
:1015B000800705D10321BDE81040142000F084B855
:1015C00010BD7CB50546002400210D2000F011F966
:1015D000932028702020687001A800902B460222DA
:1015E00029460C2000F07DF800280AD10022A95CD1
:1015F0004C40521CD2B2042AF9D3A95CA14200D0BB
:1016000002207CBD70B505460C46284600F03AF82D
:1016100020EA04012846BDE8704000F0EAB810B5A1
:1016200000F04EF88D212A2000F0E3F83E212B2017
:1016300000F0DFF81E212D2000F0DBF800212C2027
:1016400000F0D7F87F21262000F0D3F8842118205D
:1016500000F0CFF84021152000F0CBF83D211120FB
:1016600000F0C7F8A021022000F0C3F88021052077
:1016700000F0BFF87F21042000F0BBF8BDE8104067
:10168000FFF792BF7E2101EA400040F0800000F0A9
:10169000C5BE7CB505460C4607210D2000F0A9F813
:1016A000257001A800902346012221460C2000F05D
:1016B00018F818B9BDF80410102900D002207CBD1C
:1016C0000F21012000F095B870B505460C4628465C
:1016D000FFF7D8FF40EA04012846BDE8704000F05B
:1016E00088B82DE9FF5F8246DDF838900D469346B5
:1016F0004FF0020800260027BAF10C0F05D0BAF10E
:101700000E0F04D11226102701E07726302746F06D
:101710008001022000F06DF880210420FFF772FFA5
:1017200080210A20FFF7D0FF0021012000F061F89E
:10173000002405E0295D092000F05BF8641CA4B2D8
:101740005C45F7D35146012000F053F8BAF10C0F75
:1017500003D180210D20FFF7B7FF4FF4FA64042076
:10176000FFF790FF0546641EA4B21CB1E80701D143
:101770003D42F4D080210D20FFF744FF3CB106200C
:10178000FFF780FF10F01B0F05D04FF0020804B0E8
:101790004046BDE8F09F4FF000083540E80701D013
:1017A0004FF00108BAF10C0FF1D10A20FFF76AFFE0
:1017B00005460C20FFF766FF00F0070028B1691E00
:1017C00000EBC100A9F8000002E0E800A9F8000061
:1017D00005B90125102D00D91025002406E00920A7
:1017E000FFF750FF03990855641CA4B2AC42F6D32E
:1017F000CDE77E2202EA400000F02EBEFEE70000A8
:101800002DE9FE430121172000F05CFC0121084670
:1018100000F066FC5020019002208DF808000024A2
:101820008DF80A4003208DF8090001258DF80B5032
:101830003A4E01A93046FFF76BFCC0210191384FA9
:1018400001A93846FFF764FC4FF43C610191DFF8D1
:10185000D48001A94046FFF75BFC60210191DFF8CD
:10186000C89001A94846FFF753FC0D2204213046D9
:10187000FFF78CFC0D2206213046FFF787FC0D2276
:1018800007213846FFF782FC0D2206214046FFF76C
:101890007DFC0D2207214046FFF778FC0D22082130
:1018A0004046FFF773FC0D2209214046FFF76EFC0E
:1018B0000D220B214046FFF769FC0D220621384618
:1018C000FFF764FC0D2205214846FFF75FFC0D225F
:1018D00006214846FFF75AFCFEF7E2FD1348048054
:1018E000448184810481202181804480C480FEF76A
:1018F00013FE01210846FEF7FFFD0120FEF786FDDD
:101900004E208DF800008DF801408DF802408DF8D2
:101910000350684600F00EF8BDE8FE830000024068
:101920000004024000080240001002403004002081
:101930007047000030B50F23C27801250178002AD6
:101940001FD0154A126802F4E062C2F5E062C2F3E9
:101950000722C2F10404D3404278A24084781C409C
:101960001443220101F1E02181F80024007800F005
:101970001F018D404009800000F1E020C0F80051B7
:1019800030BD01F01F0085404809800000F1E020D3
:10199000C0F8805130BD00000CED00E00249084362
:1019A00002490860704700000000FA050CED00E0F5
:1019B0002DE9F04186B00121482000F083FB00248E
:1019C0008DF814408DF816404FF01C08CDF81080AB
:1019D00001258DF8175002268DF8156004A92848B6
:1019E000FFF796FB8DF814508DF816404CF2030764
:1019F00004978DF817608DF81560224E04A93046C3
:101A0000FFF786FB39463046FFF7D9FB01218803F3
:101A100000F082FB0221062000F072FD0321062067
:101A200000F06EFD0421062000F06AFDCDF808806C
:101A30008DF80E508DF80C400C208DF80D0002A88A
:101A4000FFF7D2FA08208DF804008DF805408DF8D4
:101A500006408DF8075001A8FFF76CFF09208DF8AC
:101A6000040001A8FFF766FF0A208DF8040001A812
:101A7000FFF760FF04A001F0B9FA06B0BDE8F081FD
:101A800000180240000C02404E554D5F4B45594234
:101A90004F41524420496E697469616C697A65648A
:101AA0002E0A000070B50646002505F1B000C0B250
:101AB00000F0FAF9002000F0F7F9102000F0F4F936
:101AC0000024304600F016FA641CE4B2802CF8D3EF
:101AD0006D1CEDB2082DE8D370BD10B50446B031D1
:101AE000C8B200F0E1F9102040EA141000F0DCF96F
:101AF00004F00F00BDE8104000F0D6B92DE9F04128
:101B0000074688461546154E23E041463846FFF7FE
:101B1000E4FF00242878203804EB0010305C00F04B
:101B2000E9F9641C082CF5DB08F10100C1B2384664
:101B3000FFF7D3FF00242878203804EB001030444E
:101B4000007A00F0D7F9641C082CF4DB6D1C083710
:101B5000FFB228780028D8D1BDE8F081D43700083A
:101B60002DE9F0478046894615469A460026184FCB
:101B700028E0761C49464046FFF7AFFF002428784E
:101B8000203804EB0010385C00F0B4F9641C082C19
:101B9000F5DB09F10100C1B24046FFF79EFF0024CA
:101BA0002878203804EB00103844007A00F0A2F9BD
:101BB000641C082CF4DB6D1C08F1080808F0FF0811
:101BC000564502D028780028D3D1BDE8F087000020
:101BD000D43700082DE9F04107460E46154600248B
:101BE00031463846FFF779FF285D00F083F9641C21
:101BF000E4B2102CF8D3761CF1B23846FFF76DFF33
:101C000000242819007C00F075F9641CE4B2102C43
:101C1000F7D3BDE8F08100002DE9FC41002401214B
:101C2000482000F04FFA4FF40040009001258DF855
:101C3000045000268DF8066002208DF805008DF80E
:101C4000075069462D48FFF763FA0820009069465F
:101C50002B48FFF75DFA2B4806600A20FEF754FE7A
:101C6000294F3E600A20FEF74FFE3D6000F0B2FAB9
:101C70000121FF2000F0B0FB8021122000F0ACFB1E
:101C80003220FEF741FE1C2000F016FB4FF6FF76D7
:101C900006EA00251D2000F00FFB40EA0501A1F532
:101CA000FE40A23805D019A001F0A0F90120BDE83E
:101CB000FC810A2000F000FB06EA00250B2000F062
:101CC000FBFA40EA0501A1F51850423804D012A0F1
:101CD00001F08CF90220EAE7124D05EB440041784F
:101CE00015F8140000F078FB641CA4B2B22CF4D3F5
:101CF0000DA001F07BF90020D9E700000018024098
:101D0000000C02408C824142BC0243424D49443A9D
:101D100025640D0A000000004849443A25640D0A74
:101D200000000000C43D00084F56323634302049D0
:101D30006E697469616C697A65642E0A000000003E
:101D400070B500240D4D05EB4400417815F81400E2
:101D500000F042FB641CA4B2082CF4D30024074D0D
:101D60002A3D05EB4400417815F8140000F034FBDF
:101D7000641CA4B2072CF4D370BD0000523F0008CD
:101D800070B5820701D0012070BD8A0701D0022002
:101D900070BD84088D080021FF2000F01DFB042188
:101DA000E02000F019FBE1B25A2000F015FBE9B287
:101DB0005B2000F011FBC4F30120042101EA95111E
:101DC00001435C2000F008FB0021E02000F004FB50
:101DD000002070BD10B5AE2000F066F8002000F0C5
:101DE00063F8102000F060F8402000F05DF88120DA
:101DF00000F05AF8CF2000F057F8A12000F054F876
:101E0000C82000F051F8A62000F04EF8A82000F0FD
:101E10004BF83F2000F048F8D32000F045F80020B0
:101E200000F042F8D52000F03FF8802000F03CF8A8
:101E3000D92000F039F8F12000F036F8DA2000F06F
:101E400033F8122000F030F8DB2000F02DF84020AD
:101E500000F02AF8202000F027F8022000F024F8F3
:101E60008D2000F021F8142000F01EF8A42000F0CE
:101E70001BF8A62000F018F8AF2000F015F8AF20EE
:101E800000F012F80020FFF70DFEBDE8104001A0A1
:101E900001F0ACB84F4C454420496E697469616CDF
:101EA000697A65642E0A000010B5044600F0A0FCB3
:101EB000782000F06BFC00F047FC18B100F0B4FC97
:101EC000012010BD002000F061FC00F03DFC18B1C5
:101ED00000F0AAFC022010BD204600F057FC00F0E4
:101EE00033FC18B100F0A0FC032010BD00F09CFCF6
:101EF000002010BD10B5044600F07AFC782000F0F8
:101F000045FC00F021FC18B100F08EFC012010BD52
:101F1000402000F03BFC00F017FC18B100F084FCFE
:101F2000022010BD204600F031FC00F00DFC18B17D
:101F300000F07AFC032010BD00F076FC002010BDFC
:101F400070470000F0B585B00121202000F0BAF8FC
:101F50000827039700248DF8104001258DF81350B1
:101F600002268DF8116003A91148FFF7D1F801216D
:101F7000880300F0D1F80321052000F0C1FA019791
:101F80008DF808400C208DF809008DF80A5001A842
:101F9000FFF72AF809208DF800008DF801408DF830
:101FA00002608DF803506846FFF7C4FC05B0F0BD31
:101FB000001402402DE9F04387B00121032000F016
:101FC00081F84FF40047059700248DF81A4001204E
:101FD0008DF8180002258DF81950DFF8C88005A982
:101FE0004046FFF795F839464046FFF7E8F82820C5
:101FF00005908DF81850DFF8B09005A94846FFF716
:1020000087F8052203214846FFF7C0F8052211464C
:102010004846FFF7BBF8102605968DF818508DF846
:102020001B4005A94846FFF773F8052204214846DE
:10203000FFF7ACF80121080300F06EF8ADF800409E
:102040004FF48270ADF80200ADF80440ADF80640E0
:10205000ADF808402802ADF80A00ADF80C60ADF804
:102060000E400720ADF81000104C6946204600F0E5
:102070002AFA0121204600F00FFA39464046FFF7C0
:102080009CF83220FEF740FC39464046FFF797F8AF
:10209000FFF7C5FAFFF756FF05A000F0A7FF07B04E
:1020A000BDE8F0830000024000040240003001401F
:1020B000524335323220496E697469616C697A65C0
:1020C000642E0A00054A002903D0116801431160FB
:1020D000704711688143116070470000303802403A
:1020E000054A002903D01168014311607047116847
:1020F000814311607047000034380240054A0029CE
:1021000003D0116801431160704711688143116069
:102110007047000040380240054A002903D011688A
:1021200001431160704711688143116070470000DE
:102130004438024070B5244B196801F00C01234C5F
:1021400000291ED0661004291DD008291DD0046066
:10215000196801F0F00109091D4A545C0168E14069
:1021600041601C6804F4E054A40A145D21FA04F4EC
:1021700084601B6803F460435B0BD25CD140C16098
:1021800070BD0460E4E70660E2E70F4A121F1168C1
:10219000C1F38055116801F03F0135B1B6FBF1F193
:1021A0001468C4F38814614305E0B4FBF1F11468CA
:1021B000C4F3881461431268C2F30142521C5200F6
:1021C000B1FBF2F10160C3E7083802400024F400DB
:1021D000000000201CB501210820FFF773FFC0207C
:1021E000009001208DF8040000218DF806100221D6
:1021F0008DF805108DF80700084C69462046FEF75B
:1022000087FFC0212046FEF7DAFF206820F4404017
:102210002060206840F4804020601CBD000C02401B
:1022200070B53220FEF78AFB084C01206060206008
:102230003220FEF783FB002525603220FEF77EFB6F
:102240006560BDE870403220FEF778BB988241425D
:102250002DE9F0470024164F386820F440403860DC
:10226000386838600825134E4FF00108A146322027
:10227000FEF764FBC6F898826006040ED6F81C02CE
:1022800008B1641CE4B23220FEF758FBC6F89892FD
:102290006D1EEDB2002DEAD1386820F44040386060
:1022A000386840F4804038602046BDE8F087000080
:1022B000000C02400080414210B5044600F022F8B4
:1022C000602000F045F86420FEF738FB204600F05F
:1022D0003FF86420FEF732FB00F026F86420FEF79A
:1022E0002DFB00F00FF8612000F032F86420FEF7BB
:1022F00025FBFFF7ADFF0446FFF792FF00F014F84F
:10230000204610BD70B5074C01206060206032206F
:10231000FEF714FB002565603220FEF70FFB2560F9
:1023200070BD00009882414270B5084C002060608A
:102330003220FEF703FB012525603220FEF7FEFA6E
:102340006560BDE870403220FEF7F8BA98824142DD
:102350002DE9F041054600241D4EA0460127280620
:1023600002D5C6F89C7201E0C6F89C826806050E8C
:102370003220FEF7E3FAC6F898723220FEF7DEFA52
:10238000C6F89882641CE4B2082CE8D3114C20688B
:1023900020F440402060206820603220FEF7CEFA12
:1023A000C6F898723220FEF7C9FAD6F81C0208B1B6
:1023B000012000E00020C6F89882216821F4404105
:1023C0002160216841F480412160BDE8F081000076
:1023D00000804142000C024070B506460D460024C4
:1023E000FFF790FF6020FFF7B3FF00B101246420E6
:1023F000FEF7A4FA3046FFF7ABFF00B101246420DA
:10240000FEF79CFA2846FFF7A3FF00B10124FFF76F
:102410008BFF204670BD01F0C3B9000070B50646C1
:102420000C4D4FF4004421462846FEF7C6FE01201D
:10243000FEF76AFA3046FFF7EEFF0020FFF7EBFFEA
:10244000064621462846FEF7BAFE0120FEF75CFA52
:10245000304670BD000002402DE9F04107460E46AF
:102460000C4D4FF4004421462846FEF7A6FE0120FD
:10247000FEF74AFA3846FFF7CEFF3046FFF7CBFFAC
:1024800021462846FEF79BFEBDE8F0410120FEF7FD
:102490003BBA000000000240002904D0018841F04E
:1024A000400101807047018821F0400101807047A0
:1024B0000246002012890A4200D00120704780891C
:1024C00070478181704730B5028802F441530A8811
:1024D0004C88CD8822438C882C4322430C8922438C
:1024E0004C8922438C892243CC8922431A4302809F
:1024F000828B22F400628283098A018230BD704798
:1025000010B58A07120F0F23934021F003040649E8
:10251000214401F608010C689C430C600B68904054
:1025200003430B6010BD0000003001407CB5044641
:102530000849D1E90201CDE90001074D4CF2030140
:102540002846FEF73CFE3DF814102846BDE87C40C6
:10255000FEF733BEB03F0008000C02400CB500226D
:10256000019200922749086840F4803008604FF4D7
:10257000A043086800F4003000900198401C0190CE
:10258000009810B901989842F3D10868800302D5E9
:102590000120009000E000920098012831D11948F4
:1025A0004030026842F0805202601748026842F4EC
:1025B000404202601348083002680260026842F438
:1025C00000420260026842F4A0520260021F0F4BF8
:1025D00013600A6842F080720A600A689201FCD5B2
:1025E0000B4A40F205711160016821F0030101609E
:1025F000016841F0020101600168C1F38101022913
:10260000FAD10CBD00380240007000400854400769
:10261000003C024010B5324A00211020FFF7DAFAE0
:102620002F4A002120322020FFF7D4FA2C4A002123
:1026300040323020FFF7CEFA294A00216032402094
:10264000FFF7C8FA264A002180325020FFF7C2FA6D
:10265000234A0021A0326020FFF7BCFA204A022161
:10266000603A0020FFF7B6FA1D4A0221403A1020D6
:10267000FFF7B0FA1A4A0221C0322020FFF7AAFA67
:10268000174A0221E0325020FFF7A4FA144A04212D
:10269000203A0020FFF79EFA114A0421403A102008
:1026A000FFF798FA0E4A0421C0322020FFF792FA71
:1026B0000CA204215020FFF721FA0B4A062100202A
:1026C000FFF788FA084A062120321020FFF782FA25
:1026D000054A0621403ABDE810402020FFF77ABAAB
:1026E000AF00002052480000AF0100201CB50121BE
:1026F0002020FFF7E7FC0320009001208DF8040064
:1027000000208DF806008DF807008DF80500084CB4
:1027100069462046FEF7FCFC01212046FEF74FFDEE
:1027200002212046FEF74BFD02A000F05FFC1CBD1D
:102730000014024049494320496E697469616C691B
:102740007A65642E0A00000070B500240E4D012148
:102750002846FEF734FD0220FEF7F0F80221284655
:10276000FEF72DFD0220FEF7E9F801212846FEF7CD
:102770001DFD00B1012402212846FEF71EFD0120A7
:10278000FEF7DCF8204670BD0014024070B5064626
:102790000024164D02212846FEF70FFD0120FEF70A
:1027A000CDF8C4F1070126FA01F0C00704D00121D9
:1027B0002846FEF704FD03E001212846FEF7FDFC54
:1027C0000120FEF7BBF802212846FEF7F8FC0220A4
:1027D000FEF7B4F8641C082CDCDB02212846FEF767
:1027E000ECFCBDE870400120FEF7A8B800140240E0
:1027F00010B50C4C02212046FEF7E1FC01212046D9
:10280000FEF7DDFC0220FEF799F801212046FEF7D5
:10281000D4FC0220FEF792F82046BDE810400221C9
:10282000FEF7CBBC0014024010B50E4C022120462E
:10283000FEF7C3FC01212046FEF7BFFC0220FEF795
:102840007DF802212046FEF7BAFC0220FEF776F85A
:1028500001212046FEF7B3FCBDE810400220FEF740
:102860006DB80000001402404FF0E021042804D0AD
:10287000086920F0040008617047086940F004000E
:10288000086170477047000010B51248016841F4B4
:10289000700101601048016841F0010101600E4AB9
:1028A00000210832116002680C4B1A400260031DBF
:1028B0000B4A1A60026822F48022026006480C303B
:1028C0000160FFF74BFE03494FF00060803908605C
:1028D00010BD000088ED00E000380240FFFFF6FE6A
:1028E0001030002410B5084C0121204600F09BF860
:1028F000012803D1FDF7A2FE00F0D6FA2046BDE87C
:102900001040012100F080B80018004010B592B0CE
:10291000204C0121204600F086F8012833D11E49C1
:102920002620FEF7B6FE60BB1B48FEF74AFE40BB02
:102930001948C1788278CDE900214378027817A13F
:102940000DA800F07DFB0DA800F092FA0DAB18A2C7
:1029500019A103A800F074FB03A919A000F046FB1D
:1029600003A8FDF75DFC014603A8FEF775F80020FB
:10297000FDF7F4FC4FF4FA70FDF7C6FF0120FDF7F8
:10298000EDFCFEF75FFD12B02046BDE810400121CE
:1029900000F03AB8002000402004002025303258D2
:1029A000253032582530325825303258000000008A
:1029B000434152440000000025733A257300000093
:1029C00025730A0010B50D4C0121204600F02BF8AC
:1029D00001280DD1FEF742FB094A11680A3911603E
:1029E000002901DC642010600648116800F031F80D
:1029F0002046BDE81040012100F006B8001C004050
:102A00001400002000200040C943018270470029C3
:102A100004D0018841F0010101807047018821F054
:102A200001010180704702460020138A0B40928901
:102A30000A40002B02D0002A00D001207047002A53
:102A400003D082890A438281704782898A438281C6
:102A5000704741637047000030B50288164C174D2F
:102A6000A0420DD0A8420BD0B0F1804F08D0144B3B
:102A7000984205D0134B984202D0134B984203D191
:102A800022F070034A881A43104B984206D0104B2C
:102A9000984203D022F440730A891A4302804A689C
:102AA000C2620A880285A04201D0A84201D1897A77
:102AB00001860121818230BD0000014000040140F7
:102AC0000004004000080040000C004000100040DE
:102AD000001400407FB504460D4601210802FFF7AF
:102AE0000DFBADF8044002950024ADF80640ADF8AA
:102AF0000C400F4D01A92846FFF7AEFF01221146F9
:102B00002846FFF79CFF2D218DF800108DF801401D
:102B10008DF8024001218DF803106846FEF70AFF88
:102B200001212846FFF773FF02A000F05FFA7FBD86
:102B30000020004054494D313420496E6974696168
:102B40006C697A65642E0A0010B50D4C40F225516F
:102B5000204600F06EF801280BD10A4A1088802820
:102B600001D300201080A08811884B1C1380064AD6
:102B700050542046BDE81040202100F03FB800002E
:102B80000050004026000020A003002070B5184D22
:102B900040F225563146284600F04BF8012821D155
:102BA000284600F0DFF8C4B2612C07D100210846A6
:102BB000FEF7D2FC3121284600F0D8F8412C07D18D
:102BC00001210020FEF7C8FC3021284600F0CEF895
:102BD000622C02D10020FDF7C1FB422C02D1012062
:102BE000FDF7BCFB31462846BDE8704000F006B852
:102BF000001001408A05C9430180704740F66A12FF
:102C00000A0A01219140C94301807047002904D07C
:102C1000818941F4005181817047818921F40051FB
:102C2000818170470246002012880A4200D00120AC
:102C3000704770B5002440F66A12C1F3421301F0E8
:102C40001F05012606FA05F2012B0CD0022B0DD030
:102C5000838A1340090A8E40008830400BB100B1CE
:102C60000124204670BD83891340F3E7038A134093
:102C7000F0E710B540F66A13C1F3421301F01F04E8
:102C80000121A140012B07D0022B07D014303AB10B
:102C900002680A43026010BD0C30F8E71030F6E716
:102CA00002688A43026010BD7FB504460D46208A43
:102CB00020F44051E88808432082A08941F20C6149
:102CC0008843A9882A8911436A8902431143A18153
:102CD000A08A20F44071A8890843A0826846FFF7C3
:102CE00029FA1E48844202D01D48844201D103982B
:102CF00000E00298A189090408D500EBC00101EBAE
:102D0000001029684900B0FBF1F007E000EBC001BA
:102D100001EB001029688900B0FBF1F06422B0FBE0
:102D2000F2F109010B096FF018056B4300EB83000A
:102D3000A3891D044FF0320307D503EBC000B0FB9D
:102D4000F2F000F00700084306E003EB0010B0FBD0
:102D5000F2F000F00F00084320817FBD0010014019
:102D6000001401408088C0F308007047C1F30801D7
:102D7000818070472DE9F04107460D461646002434
:102D80000AE080213846FFF74DFF0028F9D0295D81
:102D90003846FFF7EBFF641CB442F2DBBDE8F0817C
:102DA000F0B587B0054601210C20FFF78BF9022111
:102DB0008DF81810CA0205928DF8191000248DF8AC
:102DC0001A40234E05A93046FEF7A2F904210591C9
:102DD000204F05A93846FEF79BF908220C21304602
:102DE000FEF7D4F9082202213846FEF7CFF9012177
:102DF0000805FFF783F90195ADF810400C20ADF8F8
:102E00000E00ADF80C40ADF80A40ADF80840124D88
:102E100001A92846FFF748FF012240F22551284624
:102E2000FFF727FF35218DF8001001218DF80310E1
:102E30008DF801408DF802406846FEF77BFD0121C8
:102E40002846FFF7E3FE05A000F0D0F807B0F0BD7C
:102E500000080240000C024000500040554152540E
:102E60003520496E697469616C697A65642E0A005F
:102E700010B504460B4A06210020FEF7ABFE094AB6
:102E8000062120321020FEF7A5FE064A0621803AD0
:102E90002020FEF79FFE22460621BDE8104030208C
:102EA000FEF72CBEEF01002010B5064A02213020AB
:102EB000FEF724FE0421BDE81040034A3020FEF74F
:102EC0001DBE00001C0000202100002070B505463A
:102ED0000E4600240020FFF70DF8641C802CF9DB5F
:102EE0000B4A06210020FEF775FE094A0621203212
:102EF0001020FEF76FFE074A06212020FEF76AFE2B
:102F000033462A46BDE8704006213020FEF728BE31
:102F10006F0200206F010020FEE70000F0B587B0CF
:102F2000054601210846FFF7CDF802218DF818105B
:102F300000248DF81A404FF4C062059201268DF8E6
:102F40001B608DF81910214F05A93846FEF7E0F8EF
:102F5000072209213846FEF719F907220A213846C7
:102F6000FEF714F901211020FFF7D6F80195ADF80E
:102F700010400C20ADF80E00ADF80C40ADF80A4042
:102F8000ADF80840124D01A92846FFF78DFE4021FB
:102F90002846FFF72FFE012240F225512846FFF771
:102FA00068FE25218DF800108DF803608DF8014032
:102FB0008DF802406846FEF7BDFC01212846FFF768
:102FC00025FE04A000F012F807B0F0BD000002409A
:102FD0000010014055736172743120496E69746943
:102FE000616C697A65642E0A000000000FB4054B1D
:102FF00010B503A9044A029800F046F810BC5DF829
:1030000014FB0000AD350008CC0200200FB47CB5E5
:103010000C0009AD01D0611E00E00021CDE90001E6
:10302000064B6A462946089800F02EF8002C02D07C
:10303000009A002111707CBC5DF814FBDF3400089D
:103040000FB4084B10B504A902AA039800F01CF8AD
:10305000044602A9002000F04DFA204610BC5DF89D
:1030600014FB0000F534000802E008C8121F08C174
:10307000002AFAD170477047002001E001C1121FF9
:10308000002AFBD1704700002DE9FF4F8DB00F469D
:103090000546002606E025280BD0DDE90F129047F3
:1030A0006D1C761C28780028F5D111B03046BDE89B
:1030B000F08F0024A246A1460122E94900E0044322
:1030C00015F8013F203B02FA03F00842F7D12878B7
:1030D0002A2810D06FF02F022878A0F1300109299A
:1030E00014D80AEB8A0102EB410144F0020400EB20
:1030F000010A6D1CF0E701CF5FEA000A03D544F432
:103100000054CAF1000A44F002046D1C28782E28ED
:1031100017D115F8010F44F004042A280ED06FF0DF
:103120002F022878A0F1300109290AD809EB89017A
:1031300002EB410100EB01096D1CF2E757F8049B1B
:103140006D1C28786C280FD006DC4C2817D0682816
:103150000DD06A2814D104E0742810D07A280FD139
:103160000DE044F400140AE044F4801401E044F457
:1031700040146978814202D104F580146D1C6D1CE5
:1031800028786E281ED00CDC632830D004DC0028A0
:103190008BD0582811D19FE0642867D069280CD1C2
:1031A00064E073282DD004DC6F2872D0702804D11D
:1031B00094E075286ED078286DD0DDE90F12904725
:1031C000761C4BE1C4F30250022806D0032809D034
:1031D000042801CF09D0066040E101CFF117C0E912
:1031E00000613BE101CF068038E1067036E117F857
:1031F000040B8DF8000000208DF80100EB46012043
:1032000003E057F804BB4FF0FF3061074FF00001B7
:1032100002D40DE008F10101884649450FDA8045E6
:10322000F8DB1BF808100029F4D108E008F10101CF
:1032300088468142FADB1BF808100029F6D1DDE947
:103240000F23AAEB08008146214600F031F93044F3
:1032500000EB080604E0DDE90F121BF8010B9047B4
:10326000B8F10108F7D221464846F2E00A21C4F33A
:1032700002524FF0000B0891022A04D001CFC1176F
:10328000032A09D00AE0FF1D27F00707F7E802012B
:1032900008E02CE01EE01FE000B2C117042A01D1B3
:1032A00040B2C117021E71F1000206DA0023D0EB12
:1032B000030063EB01012D2202E0220504D52B223D
:1032C0008DF82420012203E0E20701D02022F7E755
:1032D000904653E00A210BE0102109E010214FF045
:1032E000000B44F004044FF00809089103E00821A2
:1032F0004FF0000B0891C4F30252022A04D001CF10
:103300000021032A06D006E0FF1D27F00707F7E893
:10331000020103E080B2042A00D1C0B24FF00008DD
:1033200022072BD52A78702A07D0DDF820C08CF030
:10333000100C5CEA0B0C05D00EE040228DF8242026
:10334000012208E050EA010306D030238DF8243032
:103350008DF8252002229046089B83F0080353EA4B
:103360000B030BD150EA010201D1620706D53022CE
:103370008DF824204FF00108A9F101092A78582A74
:1033800004D038A20B9208AA0A920BE03AA2F9E7FD
:103390005B46089AFCF754FF0B9B9B5C0A9A521EF3
:1033A0000A92137050EA0102F2D10A98ADEB0000C4
:1033B00000F1200B600702D524F4803401E04FF0C7
:1033C0000109D94502DDA9EB0B0000E0002000EB6C
:1033D0000B0141440890AAEB010AE00306D4DDE9A1
:1033E0000F232146504600F063F806444FF00009D1
:1033F00008E009A911F80900DDE90F12904709F169
:103400000109761CC145F4DBE0030CD5DDE90F238F
:103410002146504600F04CF8064404E0DDE90F1266
:1034200030209047761C0899481E08900029F5DC4A
:1034300008E00A980A990078491C0A91DDE90F1200
:103440009047761CBBF10001ABF1010BF1DC21468A
:103450005046DDE90F2300F019F806446D1C21E603
:10346000092801003031323334353637383961625A
:10347000636465660000000030313233343536371E
:103480003839414243444546000000002DE9F041EF
:10349000044600251E461746880404D405E0394634
:1034A0002020B0476D1C641EF9D52846BDE8F08188
:1034B0002DE9F041044600251E469046C80301D57B
:1034C000302700E02027880404D505E0414638462F
:1034D000B0476D1C641EF9D52846BDE8F0814A68E6
:1034E000002A06D00A68531C0B6010704868401E02
:1034F000486070470A68531C0B60107070470000EA
:103500002DE9F04707468846002F09D0B8F1000F93
:1035100006D022A52846FCF783FE461C00240BE0BB
:103520000020BDE8F08757F8243000211DA208468E
:10353000FFF76CFD0644641C4445F4D3304600F0AC
:10354000F9F881465FEA09000CD02B4616A23146F5
:10355000FFF75CFD0446B44206D3484600F036F857
:103560000020DEE70020DCE7002513E057F82530D7
:10357000311B8A4609EB04000AA2FFF747FD002829
:1035800001DB824504D8484600F020F80020C8E757
:1035900004446D1C4545E9D34846C2E750415353A6
:1035A00057443A00256400002573000010B5064C0E
:1035B000C1B22046FFF7DAFB80212046FFF732FB3D
:1035C0000028F9D0002010BD0010014010B50028DF
:1035D00021D0114B0022001F196803E0814203D85B
:1035E0000A4649680029F9D152B11368841A9C42ED
:1035F00004D1006818441060104602E0506000E0FA
:10360000186039B102680B1A934203D10B681A444F
:1036100002604968416010BDD002002070B5144CB2
:103620002078144D002810D100212846FDF77CF8A1
:103630002846FDF71BF90028FAD12846FDF71DF9A9
:10364000C0F5F840606001202070207802280DD17C
:1036500008484FF4F841001D01602846FDF73AF98B
:1036600001212846FDF760F80020207070BD0000A1
:10367000B0020020286402409AB04FF4A060FEF728
:103680008DF94FF4E1342046FFF748FC2046FFF760
:1036900087FBA820FDF722F9FCF774FEFDF77EFEFC
:1036A000FEF788FCFEF784F9FDF7FEF9EE2142F201
:1036B000CF00FFF70FFAFFF719F8FEF78BFBFEF7C5
:1036C000A9FFFEF7A9FA0028FBD1FDF749FE124930
:1036D00001200860FDF7C2FC642101A8FCF779FD18
:1036E000C820FDF76DF9014601A8FCF7A0FD0BA16C
:1036F00001A8FCF779FD0028ECD0FDF7E9FCFDF707
:1037000067FDFDF7F5FC06A0FFF770FC0B2106A096
:10371000FDF7A2F9DEE700001800002023000000FA
:10372000E5AE8CE6889000003137353830333130E3
:1037300036363200F0B50B30154D20F0070100246D
:10374000144A0FE003688B420BD38B4205D95E1AF3
:1037500043184768C3E9006700E04368136002C08C
:1037600004E0021D10680028ECD12046002802D198
:10377000286808B10020F0BD064A07481060074AD3
:10378000121A22F00702C0E9002401202860D7E7BE
:10379000D4020020D00200205CF4012058F6012061
:1037A00070B505460A4C02212046FEF781FE00282E
:1037B000F9D029462046FEF784FE01212046FEF777
:1037C00077FE0028F9D02046FEF779FEC0B270BD22
:1037D0000030014000000000000000000000000078
:1037E00000000000000000F80000000000000033AE
:1037F0003000000000100C06100C06000000000055
:103800000000000040C07840C0784000043F04043D
:103810003F040400007088FC08300000001820FFFE
:10382000211E0000F008F000E018000000211C0339
:103830001E211E0000F00888700000001E212324B5
:103840001927211010160E000000000000000000D3
:1038500000000000000000E0180402000000000763
:103860001820400000020418E0000000004020186A
:1038700007000000404080F0804040000202010F3D
:1038800001020200000000F0000000000101011F21
:1038900001010100000000000000000080B0700085
:1038A0000000000000000000000000000001010115
:1038B00001010101000000000000000000303000A4
:1038C000000000000000000080601804006018067E
:1038D0000100000000E010080810E000000F1020B8
:1038E00020100F00001010F8000000000020203F02
:1038F000202000000070080808887000003028248C
:10390000222130000030088888483000001820202C
:1039100020110E000000C02010F800000007042451
:10392000243F240000F80888880808000019212096
:1039300020110E0000E0108888180000000F1120F0
:1039400020110E0000380808C83808000000003FA9
:10395000000000000070880808887000001C222108
:1039600021221C0000E010080810E00000003122B5
:1039700022110F00000000C0C00000000000003055
:1039800030000000000000800000000000008060A7
:103990000000000000008040201008000001020428
:1039A000081020004040404040404000040404040F
:1039B00004040400000810204080000000201008CB
:1039C00004020100007048080808F0000000003000
:1039D00036010000C030C828E810E000071827248E
:1039E00023140B000000C038E0000000203C23023C
:1039F0000227382008F8888888700000203F20209F
:103A000020110E00C03008080808380007182020D0
:103A10002010080008F808080810E000203F2020C7
:103A200020100F0008F88888E8081000203F2020A8
:103A30002320180008F88888E8081000203F20009C
:103A400003000000C03008080838000007182020D4
:103A5000221E020008F808000008F808203F210193
:103A600001213F20000808F8080800000020203F3E
:103A70002020000000000808F8080800C0808080AE
:103A80007F00000008F888C028180800203F2001A7
:103A90002638200008F8080000000000203F202001
:103AA0002020300008F8F800F8F80800203F003F18
:103AB000003F200008F830C00008F808203F200030
:103AC00007183F00E01008080810E0000F10202041
:103AD00020100F0008F808080808F000203F210116
:103AE00001010000E01008080810E0000F1824246D
:103AF00038504F0008F8888888887000203F2000E0
:103B0000030C302000708808080838000038202195
:103B100021221C00180808F8080818000000203F9F
:103B20002000000008F808000008F808001F202006
:103B300020201F000878880000C8380800000738D7
:103B40000E010000F80800F80008F800033C070028
:103B5000073C0300081868808068180820302C0390
:103B6000032C30200838C800C83808000000203F67
:103B70002000000010080808C83808002038262156
:103B800020201800000000FE020202000000007F5A
:103B900040404000000C30C0000000000000000168
:103BA0000638C00000020202FE0000000040404053
:103BB0007F00000000000402020204000000000078
:103BC00000000000000000000000000080808080F5
:103BD00080808080000202040000000000000000DD
:103BE0000000000000008080808000000019242276
:103BF00022223F2008F8008080000000003F1120B2
:103C000020110E000000008080800000000E1120B6
:103C100020201100000000808088F800000E112094
:103C200020103F200000808080800000001F2222A2
:103C300022221300008080F0888888180020203F0E
:103C4000202000000000808080808000006B949421
:103C50009493600008F8008080800000203F2100DD
:103C600000203F2000809898000000000020203FA6
:103C700020200000000000809898000000C0808094
:103C8000807F000008F8000080808000203F240230
:103C90002D302000000808F8000000000020203F20
:103CA000202000008080808080808000203F2000D5
:103CB0003F20003F8080008080800000203F210066
:103CC00000203F200000808080800000001F202016
:103CD00020201F00808000808000000080FFA12045
:103CE00020110E000000008080808000000E112056
:103CF00020A0FF80808080008080800020203F21E5
:103D00002000010000008080808080000033242497
:103D100024241900008080E0808000000000001F43
:103D2000202000008080000000808000001F2020F4
:103D300020103F20808080000080808000010E30B5
:103D40000806010080800080008080800F300C0316
:103D50000C300F0000808000808080000020312E19
:103D60000E312000808080000080808080818E70F5
:103D70001806010000808080808080000021302CA7
:103D80002221300000000000807C020200000000C0
:103D9000003F404000000000FF0000000000000065
:103DA000FF0000000002027C800000000040403F55
:103DB00000000000000601010202040400000000EF
:103DC00000000000FF002CFF2EDFFF013C3211003D
:103DD000090204D813E514482C0C33783A333BFB22
:103DE0003E0043111610399235DA221A37C32300E8
:103DF00034C0361A068807C00D870E414C004800B3
:103E00005B0042034A8121992440253826825C00C8
:103E1000630046000C3C617062807C052080283085
:103E20006C006D806E007002719473C13D345A57FE
:103E300012001711187519011A973236030F3740FF
:103E40004FCA50A85A236D006D38FF00E57FF9C0B6
:103E50004124E01476FF33A0422043184C0087D55C
:103E6000883FD703D910D382C808C9807C007D0061
:103E70007C037D487D487C087D207D107D0E900070
:103E8000910E911A9131915A91699175917E918813
:103E9000918F919691A391AF91C491D791E8912080
:103EA0009200930693E39305930593009304930084
:103EB000930093009300930093009300960097085B
:103EC00097199702970C972497309728972697026F
:103ED0009798978097009700C3EFA400A800C5119A
:103EE000C651BF80C710B666B8A5B764B97CB3AF7A
:103EF000B497B5FFB0C5B194B20FC45CC0C8C19649
:103F00008C00863D50005190522C5300540055882F
:103F10005A905B2C5C05D302C3ED7F00DA09E51FE4
:103F2000E167E000DD7F0500FF01E014E177E51FB8
:103F3000D703DA10E000FF00DA09D703DF0233A06D
:103F40003C00E167FF01E000E100E500D700DA0096
:103F5000E000FF00DA10D703DF0033803C40E17758
:103F60000000B0009000A000780060012001400136
:103F7000F0008002E0012003580200040003000565
:103F800000044006B004FF01242025182660FF012C
:103F90002434251C2600FF01243E25382681FF01FC
:103FA000244825402681FF012458255026920000F0
:103FB0000400080010000000010002000040008022
:103FC000372E204553503832363620696E69746971
:103FD000616C697A6174696F6E20636F6D706C6576
:103FE000746564212053657276657220636F6E6E0E
:103FF000656374696F6E207375636365737366754B
:104000006C7E0D0A0000000028400008000000201F
:10401000D8020000060300083C420008D802002035
:1040200080F7010078300008412D010203040445A7
:10403000060708090215641A3801111654696E61E1
:104040006F10093132333435363738100E3139328A
:104050002E3136382E3133372E31220125106002B1
:104060008C2BFE920132FE180A04047E01407E422F
:10407000427E0234427E402809FC242424FC25266A
:1040800024081204481040308F80844C5525252583
:10409000554C80808040493F7940100C4448507F07
:1040A00040407F504844401009109453321E325211
:1040B00010194F53427E4BFF490142FF180B222A31
:1040C000AAFFAAAAA280A2AA08132A22201080600E
:1040D000080A6A8A8A9AAA8A8ACA0F20C024F80122
:1040E000064A020129613936511C40807F05174478
:1040F00024147F14243906197028100888492909C6
:104100004989790909092949880862180A322AA6C1
:10411000A26221110981EF21200E4222130B42825B
:104120007E02020A122346162030AC6330100A8841
:10413000C8A8998E88A8C888200A226722121280EF
:1041400040300F05133F404071C33636380806092A
:1041500009E6F80C049F53041E2E071F302040016F
:104160002320102A08011DF8898E8801190A212EA2
:104170008040201807BD43403F2C101090011808C4
:104180001010FF101011163110082060203F101081
:104190001037030C102040F81009FE121212F21210
:1041A000121E2AF0FD100B100E013F0101FF11211C
:1041B0001F150F40807F39693C40FF440173404028
:1041C00022FF1C0204084E7174C03FC0197F3410D6
:1041D0000C0339601A805F142222FE100A4020501E
:1041E0004C434C50204016807F0282FF100A40440E
:1041F00058414E605847401010108C4404E4049518
:10420000A64424148444940C280D02027A414143AC
:10421000427E424242439E170484E45C44C4100937
:1042200002F2828282FE80803F02017F10103FF7FF
:0C4230004B4888E3E11AFF010114000074
:040000050800018965
:00000001FF
